:200000000030012079550200F9710200F9710200F9710200F9710200F9710200F971020037
:20002000F9710200F9710200F9710200F9710200F9710200F971020041F700002DE9F04FAB
:2000400099B0054680780224532800F2D185DFE810F05400DC0235025A0375038D02EA02AB
:200060000C03A003CF0592036D019C02CF05CF05CF05CF05CF05CF05CF05CF05CF05CF0511
:20008000CF05CF05CF05CF05CF05CF05CF05CF05CF05F401350128033403E503AF03F600CF
:2000A00019021A040E01CF05CF05CF05CF05CF05CF05DE015701A80241015D044C04990192
:2000C0004402CF05CF05CF05CF05CF05CF05460379027B04CF058E01C9037204D60086039B
:2000E000C600BB00BE01BE02F4039900E3001B03690387043E03B700A200EC1CE97A2A7BCE
:20010000002320461DF0BAFD8DF8180006AB65200021012222F08CFCDFF8280B0078012836
:2001200000F26585204629F091FF002800F05F8505460079012840F05A8529F0F7FC0027A9
:200140004FF400018DF84B008DF84400000ACDF846108DF84D708DF84A708DF84C008DF8C6
:20016000450011AE214606F10A0029F0F3FF29781522334601706978877041704520FF2138
:2001800000F033BD28F014FE8DF8440011AB65204C2100F029BD00208DF84400E87841B2CC
:2001A000B1F1FF3F07DC10F07F00DFF8941A18BF012081F8680011AB6520532100F014BD29
:2001C00020F082FD00F013BDE87800248DF8444024F0A4F911AB6520472100F06FBCEC786A
:2001E00029F061FF0146204622F042FEB0FA80F0472140098DF8440011AB00F06FBC29F003
:200200005BFF6979AA790EF011FD8DF8440011AB6520452100F0E8BCE87829798DF8441094
:2002200011A9032800F0C884022800F0BF84012840F0C984522022F01DF900F0C7BCE81C89
:20024000042126F0F9FBE97929F0F7FFDFF8101A8DF84400022029F01BF8DFF8081A0320CA
:2002600029F016F811AB6520262100F0BDBC0226E81C8DF84C6029F0BEFF29F021FEED7995
:20028000044611A8002321462A4628F057FA29F0ADFC0ED1DFF8A8098DF84C6021462A46C7
:2002A0000023C08AADF8440011A828F047FA8DF8180006AB6520292100F096BC29F06CFCF6
:2002C00029F05FFB29F024FA40F0768306A829F041FF76E329F060FC29F0CAFD332201231D
:2002E0008DF838000EA8CDE90004DFF86C0911A921F04CFB8DF8180006AB65203321DDE38C
:2003000029F04AFC29F0B4FD312201238DF838000EA8CDE90004DFF8400911A921F036FBF4
:200320008DF8180006AB65203121C7E302208DF8200029F0C1FEADF81800681D29F05BFF9A
:20034000EA79064605F108018DF8442011AF781C29F0EEF906A831463A460023002420F0B6
:2003600071FD8DF838000EAB65200B21A6E329F0A3FE29F082FD8DF8440011AB65204221A0
:2003800000F032BC2C4614F8030B04281ABFE8782C1D02208DF84C00204629F02CFFDFF8D1
:2003A000B468A5780121E278ADF8440000230024317011A829461FF005F98DF81800284677
:2003C000347027F075FE06AB6520362176E3E87811AC214627F050FA074640000130C6B2EE
:2003E000304629F00CFF002800F07383054607700020874200F0D88214F8101005EB400202
:20040000517004EB4001013049789170F1E729F0C3FBADF84400681D042126F00DFB6A7AB4
:20042000AB7A00240146009411A826F087F88DF8180006AB6520302140E30020DFF82C4898
:2004400029F091FAADF83800681DA047814695F80FA005F11000A04795F812B0074605F12D
:200460001304BBF10F0F00F2BA8211AE5D46002D00F0B882204629F0BEFE26F8020B013D10
:200480000234F4E729F00FFE044605F10E0029F0B2FE297C6A7C0346E878CDE90012AA1D4B
:2004A000214626F01FF8DFF8B4178DF84400042028F0EEFE11AB6520272195E329F06CFB94
:2004C00029F0FEFC014611A8022229F092FD8DF8180006AB65200221F0E229F0EDFDADF8CD
:2004E0004400687904218DF84C00A81D26F0A4FA0446AE7AEF7A05F10C0029F07CFEDFF821
:2005000040870546214632463B4629F017FA11A821F018FA29F06AFB10D102202146324603
:200520003B468DF84C00B8F81600ADF8440029F005FA11A821F006FA8DF8180006AB652005
:20054000372151E36C7829F0B7FD0146DFF80007007821F04BFF8DF8440004F0E000202881
:2005600040F0458311AB65203F213DE329F014FB29F0A6FC014611A8052229F03AFD8DF8E3
:20058000180006AB6520052198E229F095FD0021002422F0CDFB8DF8440011AB65200C216C
:2005A0008CE229F0F9FA29F063FC322201238DF838000EA8CDE90004DFF89C0611A921F060
:2005C000E5F98DF8180006AB6520322176E211AC1321204629F01AFDEE7829F064FD014611
:2005E000304626F005FD002800F07A820021231D8DF844100188ADF84510C11C8278184667
:200600008DF8472029F094F86DE229F055FD6979AA790023002425F0B3FA8DF8440011ABFC
:20062000652001214AE20020DFF8404629F09BF9ADF83800681DA0478046E81DA04795F835
:2006400009A0814605F10A07BAF1100F00F2F78111AC5546002D00F0F581384629F0CBFDA5
:2006600024F8020B013D0237F4E729F095FA29F027FC014611A8102229F0BBFC8DF818007C
:2006800006AB6520072119E229F016FD69790246A81D1BF06FFB8DF8440011AB65204E21F8
:2006A000A2E229F079FA29F06CF929F031F840F0F38106A829F04EFDF3E129F0FDFC29F0B5
:2006C000DCFB8DF8440011AB652023218CE2DFF874050078002800F00B82122014E26C780E
:2006E00029F0EAFC0146DFF86805007820F084FB8DF8440004F0E000202840F0788211AB9E
:2007000065203E2170E229F047FA29F0D9FB014611A8032229F06DFC8DF8180006AB6520E2
:200720000321CBE129F0C8FC0146687919F0D2FD8DF8440011AB65204F2155E229F02CFA1C
:2007400029F0BEFBEA79014611A80023002427F05DF88DF8180006AB65200421AEE129F011
:20076000ABFC6979AA791AF0F3FD8DF8440011AB6520462138E229F09FFC6A7B691D002306
:20078000002423F009F88DF8440011AB65200A2194E129F001FA29F093FB014611A8112289
:2007A00029F027FC8DF8180006AB6520082185E16879EE1CFE280BD1A879FF2808D12878ED
:2007C000082805D3304629F016FD314625F000FC11A9304628F010F9002800F09B81054617
:2007E0000024A9E1002006908DF84900CDF84500E81C06A927F01CF88DF84400069840B187
:200800000188ADF845104188ADF8471000798DF8490011AB652043210622E6E1DFF82414A6
:20082000C8208DF81800E81C0978002900F0928128F0F9FB8DF81800B4E10020EC78CDF8FB
:200840005200CDF84E00CDF84A00CDF8460029F02AFCADF84400A8790F28024628BF0F2239
:200860008DF8462020B111A8E91D033028F060FF11A9204601221DF033FA8DF8180006AB88
:2008800065204B21B0E14FF00208E81C8DF84C8029F0B1FCADF8440068798DF83800A81D26
:2008A00029F0A9FC2E7A044600270935CDE900570EA811A92246334621F068F829F096F9AC
:2008C0000FD1DF488DF84C80CDE9005722463346C08AADF844000EA811A921F057F88DF84A
:2008E000180006AB652028217EE129F055F96A7BADF84400691D11A80023002426F028FB0E
:200900008DF8180006AB65203521D7E029F044F9ADF84400687B0024691D0094C0F34002A2
:2009200000F0010311A822F055FF8DF8180006AB65203421C2E0E81C28F075FB8DF8440085
:2009400011AB652044214FE100206C788DF84400BC480078411E022980F0B4800220B5E093
:20096000B74D0822E88A05F13901ADF84400B64800788DF84600A88CADF84700688BADF8C5
:20098000490011ACE01D28F0D3FE04F10F0005F11C01082228F0CCFE287E5021182223468E
:2009A0008DF85B00652020E16520492132462B4622F03EF828463EE1084629F01CFCADF800
:2009C0001800687E06A928F0ABFE11A921201CF04FFA8DF838000EAB652021216EE080202E
:2009E0008DF8430026780F2E10D80597671C75004FF0000806AC45450AD007EB080029F068
:200A0000FAFB24F8080008F10208F4E780200FE0BBF10F0F0ED811A90020CDE90264524612
:200A2000CDE900B104900EA8059B494615F02EFB8DF843000DF1430365202021D4E0802082
:200A40008DF8430097F800B0BBF1100F0CD87E1C4FEA4B05002406AFA54207D0301929F0C4
:200A6000CAFB38530234F7E780200EE0BAF1100F0DD811A900204A465346CDE9001BCDE94B
:200A800002700EA8414615F059FB8DF843000DF1430365200621A7E0084629F0ACFBADF85C
:200AA0001800687E06A928F03BFE11A922201CF0DFF98DF838000EAB65202221012221F0E6
:200AC000B7FF95E0002840F08580042009F082F983E0002049218DF8180006AB652083E0D3
:200AE00001208DF8440011AB65204A2113227CE029F0E2FA044605F10D0029F07CFB0246B5
:200B0000691D204625F030FD8DF8440011AB6520512169E0182029F072FB002800F08E80FE
:200B20000446BDF8440000211822234628F096FC0546002818BFC825192029F060FB0028F8
:200B400072D007460130002D56D01821FF2229F007FA5BE00EA911AD2A4618F061FE04463D
:200B60009DF83800F0B1404904EB4400002641F8206001EB800046609DF95700B0F1FF3F8E
:200B800003DC05F1130023F02DF911AD1421284629F03CFA0420214614222B4625F0B2FE8D
:200BA0008DF8186006AB652024211DE0522021F061FC2648012104E0522021F05BFC234827
:200BC0000021017002E0522026F0FEF911AB65204D2109E001208DF8440004F0E000202884
:200BE00005D111AB65204021012221F021FF0024204619B0BDE8F08F3146082228F098FD64
:200C000007F109002146102228F092FD6520252119223B463D7021F00BFF3846192129F073
:200C2000F5F9384629F0E9FA002CE0D02046182129F0ECF9204629F0E0FAD8E7C825CFE51A
:200C4000E075002010260020C0260020D6270020048300209527002074260020216D0200D9
:200C60000F7302009D590100903E0020F7A102002DE9F04F99B080466FF00700DFF8DCA84C
:200C80000630ADF852009AF80000022814D1DFF8C808007880B9B8F8080010B11020012163
:200CA00001E0302000210AF0C3FE00208DF81C0007A9522021F0DEFB0DF11C0998F808108F
:200CC000D8F804004A4610F05DFBE8B19DF81E609DF81F409DF82050BDF8267028F020FF31
:200CE000844211D127F003004FF6F87180B288420AD0012D08D8022E06D29AF800000228DC
:200D000008D19DF84D0028B1D32018F0E0FA19B0BDE8F08FB8F82800ADF84800B8F83200D6
:200D2000ADF82A009DF82200D0B1D8F804109DF81D209DF83830012027F0ACFC08B1CF2071
:200D4000E3E7DFF81C08C078012809D1B8F8280029F01FF920B1417901F0E701083141713B
:200D60009DF8210068B1BDF82610FF2026F040F99DF82110E0B141F001012C268DF82110B9
:200D800017E09DF83900002800F0EB809DF83D10FF2902D0002940F02681DFF8C807BDF8D4
:200DA0002620C18A8A4240F027810120222607E0082601F00300012808BF46F0110601202E
:200DC0009AF800104FF6F877012908D8B207344658BF64F07F04002808BF344600E03446CF
:200DE0009DF82200DFF87C575FFA84FB30B9E87A20B10BF02200222840F080801BF04000BC
:200E000004901CD0012903D8A87B800700F1D880119801780C2900F2DB80012241F2984385
:200E20008A401A4200F0D480032902D140780D2805D007A822F02AFB01283FF468AFA88CFA
:200E4000B8F8441081420AD198F84620B8F84210B8F8280000230093002307F0DBFE9DF8E2
:200E60002200F8B1B8F84210B8F8280022F01AFE002800F08F800646D8F804009DF81D109A
:200E8000F2780844417B8A421EBF00227260F1700130042125F0D0FD71688842FFF437AF2E
:200EA000013070609AF80000022834D2A87B80077FF52DAF9DF84D004FF6F87660B1BDF81A
:200EC000280027F025FE002800F00781D8F80400417801F0DF0141709DF82E00002800F026
:200EE000DF80D8F804008179013981718DF82E1004F07F00090640F0D680D3E00BF04200DE
:200F000042287FF41CAF1198007800F0FE0006287FF415AF72E77FF4FAAE95F8260009285D
:200F200002D004287FF4F3AE5FEA8B6000F19E80049800283FF4EBAE11989DF838100078CE
:200F4000042808BF022900F04581072808BF042900F009810C2840F04D8107A815F052FCEC
:200F6000D5E6BDF8260023F039F80238DFF8F415B0FA80F0CA8A4109BDF82600904208BF51
:200F8000023100293FD09DF81E20002A56D001F1400455E09DF84D00B8B3042026F016FBC0
:200FA00000283FF4B4AE01464FF4B2700880B8F828004880DFF8B00500781EF0FBF9A6E60E
:200FC00011980178A1F10C0212F10C0F3FF62CAFE88ABDF8262082427FF496AEBDF828005C
:200FE00024F036FC90E6109A9DF83C0021F054F930B101200026E3E690F826000428F8D1C8
:2010000000260020DCE600241AE095F86C0001287FF448AF11980078062803D10498002837
:201020007FF440AFF81DBDF82A1080B281423FF46EAE07A841461EF051FC68E601F1200411
:2010400022F0CCFF0138B0FA80F0400944EA00069DF81E0000283FF4B2AE1198007827F03D
:20106000ABFD012818BF04F07E06A8E698F8460028F041FC9DF82E00012840F0B480B8F897
:201080002800BDF82810814240F0AD80BDF8260022F0A4FF022804BF00208DF82E00A2E049
:2010A00004F07F000446210702D44FF0000A34E0E1B24A0722D4C9069DF8211028D5C1F3F8
:2010C000820212B1072A18BF013A002A08BF044601F0E30040EA820118E0D32018F0F7F8E8
:2010E000DFF888040078002800F09F80DFF8801451F82000C0EB0010810098E09DF82100A0
:2011000000F0E00100F0E30040EAD1018DF82110D8F804004FF4805A017295F82600092831
:2011200001D0042823D1E98ABDF8260088420AD022F054FF022806D09DF8210000F00300BE
:2011400001287FF4E4AD9DF81E00002847D011989DF838100078042808BF02293AD007281B
:2011600048D1042946D107A818F0F6F8CFE5E7B214F0610F46D0F80709D0B8F8281007A827
:20118000A94615F087FD002864D004F09F040025E7B2A00609D598F84600D8F83C2028F088
:2011A000AAFB07A815A905F059FD780640F12681B8F8281007A80DF152022B4610F05EF9CB
:2011C00000286FD0054611980078012808BF4AF0100A13E107A9002010F06CFF97E598F8BD
:2011E000460028F088FBD8F83C2007A815A905F035FD8CE503287FF48AAD07A800210FF039
:20120000CBFD84E59DF81E0001285AD111980078032849D0052854D1B8F8281007A80DF14A
:201220005202002310F02AF971E5D1480168D1480268BDF82800904701287FF468ADCE483E
:201240000168BDF828008847CC480168BDF8280088475CE526F08CFD9DF82E100546BDF89D
:20126000280019B9B8F82810884291D0B9F81610814204D1BA48807800283FF489AFB8F8B5
:20128000281007A82A460AF097F9002800F09B8038074AF0040ABDF8260048BFF01DADF81F
:2012A000520075E70025A9E0BDF8260027F030FC38B1B8F8281007A80DF15202002310F0BF
:2012C000DDF89DF82E0088B324F052F800287FF41EAD9DF83900A0B3109A9DF83C009DF846
:2012E0003D1020F0D9FF002870D09DF83D00002875D0109928F011FE9DF82430ADF8520062
:2013000011209DF823209DF821104AF0400A002B08BF0920002A18BF0830002918BF0130F5
:20132000D8F804100A5C013A0A5462E09DF81E0001287FF47EAE1198007803283FF4E7ACFB
:2013400077E69DF82010BDF826000029ADF8520000F0D3804020BDF8261009F11D0200EADF
:20136000C4059DF820002B4618F034FF38B1D8F804004AF0200A017801F03F0101709DF872
:20138000390048B1BDF8261009F1200022F060F84AF0400AADF852009DF81E00012806D07F
:2013A000BDF82810BDF82600002215F029F9BDF82810BDF826002A4612F00AFD002818BFDC
:2013C0004AF0200A15E004F0DF04E0E6BDF82610BDF828000B2200231AF062FE97E4BDF865
:2013E0002600ADF8520028F0D4FD002808BF4AF0400A26F0BDFC05464FF6F876B01DBDF825
:20140000521080B20F1A5E4818BF2F460078012805D1F01DB8F8321080B281422FD160B2A0
:20142000B0F1FF3F3FF773AC002F3FF470ACB8F8080028F0E4FE00283FF469ACB8F8082000
:20144000D8F80410054628F073F99DF81E10002098F80830B8F8282016908DF85410BDF8F2
:20146000521015ACCDE9007ACDE90204284610F0ADFD70B3284628F0C0FEFFF748BCB8F834
:2014800028108142CBD0701CBDF8262080B28242C5D2BDF828008142C1D028F07AFD0028BA
:2014A000BDD0017901390129B9D8408801218DF85410ADF8600015AD28461EF0D3FE002821
:2014C000ADD0281D1DF042FE0028A8D022F00AF9A5E72348407800283FF419AC00208DF8D4
:2014E0001870ADF81900DDF826004FEA3040059005A827F0A9FFFFF70ABC39073FF52AAFF8
:201500009DF81E1001293FF425AF002118F022FE20B1407901380228FFF41CAFB8F84410DF
:20152000BDF8520022F0BEFA30B1807826F080FE01380728FFF40EAFBDF8280027F0E8FA7F
:2015400018B104208DF8200004E7BDF82610BDF8280002223FE700BFD627002010260020CA
:20156000E0250020E075002006830020C827002088B70200702300207823002074230020B3
:20158000D42700202DE9F0438DB0054680780224252800F27380DFE810F026004F011301BE
:2015A000ED0030016F01AD00BE02BE023E01C700BE02BE02BE02BE02BE02A8002701BE021A
:2015C000BE02DF000A01E300BE02BE02BE02BE02BE02BE02BE02BE02BE02C4007D018001FB
:2015E00001018301A500DFF8EC7500240E258DF804403878012807D801A81DF03FFA044677
:201600009DF8040005EB4005EEB2304628F0F7FD002800F08F824FF000080546431C00219F
:20162000082280F80080012027F018FF28F07EFA6872000A0721A872DFF89C05E972007838
:2016400028733878012800F26A829DF80420002A6A7300F0668205F10E000021234691423F
:2016600080F05F8213F8022B013100F8022B13F8012C00F8012C9DF80420F0E7A0F14001CB
:201680000D2920D8DFE811F00E002F0147024702130148014702470224013D016C01810143
:2016A0004702550101ACE91C0822201D28F040F820461AF055F9BDF806000DF12A0340211D
:2016C000ADF82A0070E0632800F07C81642800F06C81E02840F01F8200244720E021002283
:2016E000002316E2F52025215BE015F8032B67201021F6E000208DF80400E81C28F07BFD33
:201700006A7900F4F851002A00F0AA81B1F5A06F04D04FF6FF71884240F0AC814FF0FF3091
:20172000A6E1F5202021BDE0DFF894642D79306840B901AC204628F0C9F8012021460EF0B7
:2017400079FC3060052D00F0D881002D00F0D881642122F0D3FBD5E100246720142129E08F
:2017600000246720162109228DF80C40CDE9014401ABCEE1E81C042125F05EF9019084206B
:2017800028F050FC014601AA842028F001FB8DF82A000DF12A03672003216EE14FF6F570BD
:2017A0002321ADF8040001AB6720022266E1002467201521ADF80840019401AB0622A8E1DE
:2017C000E81C28F018FDADF80400832028F02AFC014601AA832028F0DBFA8DF82A000DF11F
:2017E0002A036720022148E1E87824F0A9F88DF8040001AB672011213FE1612028F012FC1F
:201800000146EA1C612028F0C3FA8DF8040001AB6720042131E128F0C4FC044628F0BFFC3D
:20182000EA49604301ACB0FBF1F1204628F050FC672009210422A6E0202028F0E0FC002815
:2018400000F01E812021FF22044628F089FB631C01200021082227F001FE054601AB842015
:201860000021042227F0FAFD002800F06581002D18BF0125023566E1622028F0D3FB0146BE
:20188000EA1C622028F084FA8DF8040001AB67200521F2E0F520212104E0F520222101E002
:2018A000F52024218DF8040001AB6720E5E0E81C0DF12A0127F0A0F800288DF8040000F0D0
:2018C000E18001A81821FF22013028F049FB06E115F8030F697822F0BDFA288067204821CF
:2018E00002222B46CAE0E81C28F085FCADF8060001AC204617F0ECFC231D6720412108220C
:20190000BCE0E87825F0BCF901AC0146204618F061FE6720492135E0E81C0DF12A0127F0F6
:201920006BF800288DF8040000F0DE804FF0FF30DCE04FF0FF3095F80380691D0190ADF8E1
:201940001000CDE90200FE208DF80600287903288DF8320047D10DF12A0028F0FBFB47E01E
:20196000EC1C204626F022FD002818BF2046B5F80B1019F049FB01AC0146204618F02AFEC0
:2019800067204A212422234678E001ACE91C0822204627F0CDFE204627F08EFC8DF82A0074
:2019A0000DF12A0367204B2167E0B5F80B006A7B0024E91C8DF804400AF0F6F801AB672018
:2019C0006421A5E00024E91C08228DF82A4001AD284627F0ADFE28461DF0B8FB0DF12A0384
:2019E0006720632194E0084628F005FCADF82A00AF7B002F00F0DE807E0095F80D9030466D
:201A000028F0FDFB002800F0D58005F10F013246044627F08DFE0DF12A0140464A463B461F
:201A200000940DF051FB002800F0BA8083780178427805798DF806308DF804108DF80520CD
:201A40004279C1788DF808508DF8092052008DF8071001A98B1D811D184627F069FEA6E0C7
:201A6000B1F5A06F03D04FF6FF71884202D100205749086001AB67200621012220F0D8FF00
:201A8000002448E0182028F0BAFB40B3BDF82A100446009006200022182324F01DFFB8B915
:201AA000BDF82A5001AE21461022701C27F040FE454F05EB450506F1110057F8251028F05C
:201AC00007FB07EB8500416806F1150028F000FB2046182128F09AFA204628F08EFB01ABC7
:201AE000672044211922C9E7BDF82A00ADF8050001AB672045210322C0E7324901220A7009
:201B000021F095FB002467200A218DF8044001AB012220F08DFF20460DB0BDE8F08385F862
:201B20000D806720002132462B4620F081FF284628F063FB84BBA3E70198002D00BAC4F80E
:201B4000090018BF01250DF12A0383200021022227F084FC08B1043503E0BDF82A00A4F885
:201B60000D0004F10F0361200021012227F076FC002804F1100318BF0835622000211022EA
:201B800027F06CFC0028234618BF1035672001212022257020F04CFF204628F02EFB6FE741
:201BA0004FF6FF70ADF808006FF480300190204628F023FB01AB67204D210E225EE700BFAF
:201BC0009482002092270020A07D002040420F007482002010260020C02600202DE9F04F61
:201BE00085B084780226362C00F2C8820546DFE814F0660191014D017D015201C502C50232
:201C00005B0137005F00E8004101FB00C502E0009901C502C502A301D201C201C502C50216
:201C2000C502C502C502C502C50237005F00C502C502C502C502C502C502C502C502C5022C
:201C4000C502C502C502C502C502C502C502C502C50270002D01E0019E00490049006E0167
:201C600028F01BFA242840F07A8102AB352000210422002427F0F2FB002800F0048202228D
:201C8000012006E2DFF85485D8F80000F8B1406AE8B102A928F00DFA0646342C40F0E981BF
:201CA000304628F0A8FA002800F03B8204205CE200208DF8100028F0F0F90646092C40F056
:201CC0009B8095F8059095F8068007209DE003204BE2DFF8086501208DF810003068002806
:201CE00000F077810069002800F0738102A928F0E0F9042124F0A0FE002800F00E82044622
:201D000028F07DFA002800F067812146054628F07DF93068BDF80C1022462B4606690298A9
:201D2000B0478DF81000284628F067FA54E1DFF8AC743868002800F05381C069002800F037
:201D40004F8102A928F0B5F99DF80850BDF80AB0BDF80C90044628F04EFAA6788046F72EE2
:201D600028BFF726B01C5FFA80FA504628F047FA002800F0D481012D044608BFBBF1000F6A
:201D800000F002823868A11C42463346C569029800914946A8470746002840F0FB81002752
:201DA00061203321524623466670277020F040FEF0E1002661200E2101228DF8086002AB2E
:201DC000F6E1E878032800F22381281D28F013FA0246E878DFF80C1431F81010DFF80804D6
:201DE000007828F072F914E128F08DF8ADF8080002AB61200C21DAE0681D28F0FCF981463B
:201E0000E81D28F0F8F98046092002AF242E18BF2F1809EB080508BF3526304628F002F9F8
:201E2000854201D90220A0E1B9F1000F04D1304641463A4623F086FB304641463A4627F02B
:201E4000A7FF002800F018810A208EE1DFF88C432068002800F0C6808069002800F0C280C3
:201E600002A928F026F92068BDF80C10826902989047B8E0E878032800F2CF80D94931F81C
:201E80001010D94800781DF0D3FEC7E0D74B612002210A226FE102ACE220214625F094F80A
:201EA000612004210822B1E028F0F7F80446681D28F0A1F9242C40F0B580002022E1E87801
:201EC000012802D0002840F0588127F099FCC34C2068002800F08D80C068002800F0898025
:201EE00028F0DBF82168C968884783E00120EC1C8DF80800E220214620F0BCFA30B901201C
:201F00000821224627F044FF8DF8080002AB612003212FE140F259600121ADF8080002AB80
:201F2000612044E0E878291D012800F0D980002840F0DD80E020D7E028F0AFF80446681DEA
:201F400028F059F9242C0FBF00200146204628F011F88DF8080002AB612012210AE1834669
:201F60006938002680B2032838BF0126681D082C6ED105786FE0E8788DF8080098488068A6
:201F8000D0F8302402A9E02090478DF8100004AB61201421EEE028F080F824280CBF002014
:201FA00028F040F8ADF8080002AB612013210222E1E08A4C206808B3806AF8B102A928F06E
:201FC00078F82068BDF80C10826A02989047014615E003208DF8100004AB61203021C9E0BD
:201FE0000327DCE003208DF8100004AB61203121C0E0032027F05FFF3621BBE0002102ACC8
:20200000204628F065F86120322104222346B2E0022027F050FF0A21ACE0022027F04BFF2E
:202020000B21A7E005F10806ED790146A84265D92046002227F0A6FE09288DF8080063D1DF
:20204000002D61D020462946324627F0A1FE5BE028F0D1F80546584627F0E4FF0227A8420D
:2020600088BF7700EFB100268DF80870612021469AE006F1010957E0012E78D1E22039464C
:2020800020F0F8F971E0029804220224ADF8120000208DF810008DF8114004AB612008216D
:2020A00069E0401B87B2F72F28BFF727B81C5FFA80F8404628F0A3F8002863D000F1020AE2
:2020C00081463946504627F0A1FF584629463A46534627F0C3F9054600286CD00A2775E03F
:2020E0000878022814D2522020F0C4F900E002208DF8080002AB61200F213BE0204632462B
:2021000027F040FE8DF8080002AB6120072131E002A9522024F058FFECE705205AE710277E
:202120003DE006F1030902369DF808003678012811D1BDF80A0070B9BDF80C7031464A46D1
:20214000384623F0FFF9012F07D1E220494620F091F9012701E0BDF80C70D8F8000039463A
:2021600032464B46456A0298A8478DF8100004AB61202146012220F05BFC0026304605B017
:20218000BDE8F08F10276EE7A9F169000328BFF4F9AD0227204628F030F8002FEDD0002627
:2021A0008DF80870612033218DF8096002AB022220F03EFCE2E789F801700027612021467A
:2021C00042464B4689F8007020F032FC484628F014F8002D7FF447AFCFE700BF582700205B
:2021E0000C0100204CBD020004830020E8BC02002DE9F04F9FB00446DFF89405406818B18B
:202200008047002800F05182DFF88805DFF888B50F940DF1400A4FF0F80800780BF11807D7
:20222000411E002C0C9118BF01219BF80290002400258BF80F109BF801100E9184421FD273
:20224000A14517D0E6B2002152460423304627F037FA109810F4403F40F00400C0B218BFD3
:2022600001357C2806D130460621F82226F0A2F987F80080DFF81C050C3701340078DDE79A
:20228000E9B201380024884204D19BF80500002800F07A820F9DCDF83490DFF8F4840DF179
:2022A0005C09C5F50050002D0190284608BF1020C0F500500490002003900E9E0C9F0024C5
:2022C000380400F0F4819BF80F0010B901208BF80F00F0B2002110AA042327F0F1F91098F2
:2022E000D5B110F4403F1AD04FF40050DFF8A4140134013FABF810009BF80F000978013845
:202300008BF80F00012050FA86F0B0FBF1F202FB11068BF80D60D3E70021069102E00E96C0
:202320000C970694C0B20E9F0024702803D0F8B2702122F0C3FC0D98002110AA04235FFAA6
:2023400080FA504627F0BCF99DF84000FE2803D05046FE2122F0B2FC50460621FE2226F06B
:2023600029F94FF400500D9B0BF116015A468BF80D70ABF8144088F80040ABF81000FF20C4
:20238000D67B8BF80E00F8B28BF80C30400050FA87F001EB8000B0F806B04FEA4A0050FA5A
:2023A00083F001EB8001FE20A2F812B00D4605F8020F31F8060F0890DFF8D80305910478C8
:2023C00016A821F0CFFE56FA87F0CDF82CA0013890FBF4F101FB14000290169809900E97D2
:2023E000FFB2574500F05B81A7EB0A00B0FA80F040090A90002007900F9EC00740F09F80B1
:202400001FFA8BF4162C70D998F80000002840F06E81ABF10706384611AAB1B218F0DAF9A2
:20242000BDF8528008F11000A0420FD89DF84E0096280BD1A6EB08049DF84D2041463B461F
:202440001FFA84FA50461BF0BDFF08B3ABF1010BDFF83C835C46A0B2172864D33628A4F132
:20246000160638464A4688BF2026A41BB3B2A1B227F026F93004EED019FA86F010F8010C68
:20248000962801D0013EF5E706EB040B0020B3E79DF84F00C10701D1800704D40020A346F2
:2024A000DFF8EC82A8E708F1070083B2089813FA80F6B6F5005F01D90120F1E780B2B949DF
:2024C00018440A1A3846514627F0FAF807980130B6F5005F079004D101204FF400510891CA
:2024E000DDE70020A3460896DAE7079810B1AA4927F032FA0298C0B2874200F0D4800E995A
:202500000120DDF82CA050FA81F0A2490978B0FBF1F202FB1107A04907EB470001EB8000A1
:20252000B0F81CB05BE79D480999006842689C48904700200A900E980D900F9E08E0079860
:2025400010B1954927F008FA00200A900E980D9098F80000002840F0CA80089C10210E951C
:20256000A4F11000C4F5005283B20B98C1F2001221F014FE98F800100843099988F80000DE
:20258000864800684268864890470A9888B1814800783918013991FBF0F202FB1011C8B209
:2025A0000D91400050FA81F07B4901EB8000B0F81CB079480123A0F814B0834604820D98A9
:2025C000BBF912209BF80D108BF80E00059804800B9C204623F0D6FEBBF914209BF80E1026
:2025E0002046022323F0CEFEBBF81000354656B10199DDF80CA0069E8142A2BF4FF0010AFF
:202600000121039102E0069E4FF0000A049981424FF07C01B8BF78210B9C204622F04EFBA1
:202620000EF0B4F907469BF80F000621FC22C01B8BF80F00204625F0BDFF0E99FC209BF8C1
:202640000E3008709BF8021017FA86F00E93014450480078B1FBF0F202FB10118BF8021061
:202660000D910131CAB2B2FBF0F202FB10118BF8011003EB43010BEB8101898B102906D1FF
:202680000E990131B1FBF0F202FB10100E900C98C01B0C905FEACA703FF40FAE07E0012082
:2026A00057460A9049E7029851E700246CE07C2022F01EFB0446FF284FD17E2022F018FB56
:2026C0000446FF2849D19BF8014004EB44000BEB8000807DFF283CD02E489BF8021000782F
:2026E0000144013991FBF0F202FB101435E02B480999006842682A489047274E0025254840
:202700000078854214D2ECB2204615F037FA98F80010084388F8000045B11E4800780138E2
:20272000854203D020467E2122F0C8FA0135E6E7B18B01380024B070C0B2F4707470F1803F
:20274000FE2122F0BBFA00207C2122F0B7FA74711AE020467E2122F0B1FAE0B2FE218BF83E
:202760000340400050FA84F00BEB8000808BABF806009BF8020022F0A1FA00208BF8050004
:20278000BBF81000C0F5005420B21FB0BDE8F08F7C23002005830020F07A0020D8010010CE
:2027A00000400340002000112DE9F04F89B021F0B1FFDFF810158122DFF81485DFF814A577
:2027C000DFF82045DFF814E50A70DFF8FC140860DFF8F804FF2101700020DFF80415A8F810
:2027E00000008AF80000DFF8F0040968007891F808B04FF6FE718EF8000059448AB2A16846
:20280000D1F80031DB899A4200F267810422DFF8DC54A8F80020DFF8D02412689668330E33
:20282000CEF80C60C6F301592B706FF0FF0303EA1627B3B2D1F8B86047EA1327AEF8047062
:2028400036781EB9B9F1020F00F04781B9F1030F00F043811B0A03F0070316B1002B00F00C
:202860003C81DFF88CC4042B9CF800C008BFBCF1000F00F032813EB1DFF878643678862EC7
:2028800002D1022B40F02981BB0416D4BBB203F00703022B08BFBCF1000F20D0DFF854146C
:2028A0000978862909D10020764621F087FFDFF84004B64690F800C0307800284ED0BCF1A1
:2028C000000F4BD1012800F0088103283FD0022844D1BEF80400400740F0FF803EE0D1F81B
:2028E000D40090F88300022800F0808027460520147BF246A946A8F8000027F0E1F80546BC
:20290000DFF8F003007886286DD1B868016C096811B9D0F84C05804760B20021002627F071
:20292000B5FCB9680A6C12685077086C00688677086C0068C477284627F091FBBAF8041047
:2029400099F8000001F010011DF040FB4EE0BEF8040000F00700032840F0BF80BEF8040069
:20296000010700F1BA80810402D4810500F1B5809EF80E20C2F38107012F00F0AE8096092F
:20298000012E00F0AA80B9F1010F11D840F0020101F0070103290BD117B93F2A40F29D808F
:2029A00037B9A168D1F8AC100978002900F095804FF6FB71B9F1020F0BEB010C19D1CF4B77
:2029C000D95D9B5D03EB01090023402AB7FA87F238BF012352091A40430616D4002A08BF26
:2029E00009F1020915E0284627F039FB25F094FF75E0C14B402AD95D9B5D03EB010908D3B0
:202A0000420648BFA9F1020903E0002A18BF4FF00209C0F300205FFA89F11FFA8CF30A1A32
:202A20008EF801009A4258DC60440391B346401AA168AEF806007430D1F8501280B28847EF
:202A4000A6490028886048D07421CDE9019727F0DDFAA24F0020B870A548007820B9387966
:202A600000F020008AF8000078789AF80010DFF878C24FF000092E4600299A493DD0002824
:202A80004FF000003AD1B88800F00700032807D0012832D18868D0F8D40090F8820060B3DE
:202AA000C8684069007818B126F07AFBFE280DD08C488068D0F84C02804738B9894880682B
:202AC000D0F844028047002800F0F780834F0120B870DFF814C22E4610E026F0C9F926F078
:202AE000EFFF814900240A6813681C7112680A6027F0B5FA09B0BDE8F08F0020BC6804F1C0
:202B0000740184F830B06160A1657978BB88FA880029A381029B228184F83A30337808BF82
:202B2000994697F80EB084F84990019DA4F85C20FF22B8F80030A273CBF301195E1A797B04
:202B4000A8F8006001F0780160F3820101EB09002074280600F0AE80DCF8000004AF039A3C
:202B600010FA86F000F10801384627F06FFB56FA85F0CBF38105A8F80000207C00F040085F
:202B8000CDB3B9F1020F06D1B8F1000F03D0B4F8440004AF06E0BDF810000237A4F8440031
:202BA000A4F84200564EF189884203D04FF6FF7188425ED1032D11D104F13200394627F0FF
:202BC000C9FA464CF11CA068323025F01FF8454900284ED094F80EB008370EE037F8020B76
:202BE000B1898842608606D04FF6FF713B4C88423C493ED101E03B49384CBBF1400F20D3A4
:202C0000B9F1020F06D16DB9B8F1000F0AD13348806803E0A068017C490603D4398802377E
:202C2000A0F84210BBF1C00F06D32C4C3946A068283027F08FFA03E0284C3888A1680885B2
:202C400028498968A088D1F8AC201278B2B1B9F1020F13D200F00700012802D003282FD1AB
:202C60001E4C6DB9264AA368D289B3F84230934206D023F0E0FE19F0EDFC30E700F0070035
:202C8000032806D0012815D1D1F8D40090F8820080B1A068D1F848128847104A50B90020CF
:202CA000D17B9070907BC1F3011100F0780008449168087406F0B2FF11E7084FB87808E7B9
:202CC000064CDDE71A830020A48200201F8300202E8100201D8300201C8300202025002066
:202CE000E48200200C0100203C8200202D8300202C8300202283002040BD02003CBD0200E5
:202D0000708100202DE9F04F8DB00C4648070FD4200441D4E00400F17E81200600F1A58142
:202D2000A00700F1B981200500F1DC810020D3E1DFF8F0040178062900F29481DFE811F038
:202D400007008201920192017B0192018701DFF8E054DFF8D4142A7891F82B30022A02D1DD
:202D60009E0600F17F815E0700F182819B0740F179810423037091F82C30DB0700F0728154
:202D800091F82E30002B00F03B8225F0B1F90420012101F005FD3FE2DFF89804DFF88C5431
:202DA000DFF88094DFF880B4DFF884A448F202080088019028781CF0D1FA002800F0288189
:202DC00006460078D3282DD1F089404540F00681DFF868040078002800F0008199F800009C
:202DE000012840F0FB8026F0EBFB002840F0F6807088002840F0F28002AF1221384627F0FA
:202E000005F927F021F83046394618F00BF8BDF81400B0F5285FC0F08680012002211EF087
:202E20008DFEDBE099F80010884218D1012833D0032840F0D3809AF800000138012800F238
:202E4000CD80B078012850D0002840F0C7807078002800F0B38000201DF0F4FABEE00A28F7
:202E600006F102070BD19BF82B003071DBF8181009B138468847384624F04AFFAEE009287B
:202E800040F0AC809AF80000002840F0A780DBF8081038468847A1E09AF800000138012818
:202EA00000F29C80707860B19BF833009BF8341001308BF83300C0B2884202D9012000212E
:202EC00053E099F80100032863D0022850D0012840F08480DFF864030078002840D026F024
:202EE0006FFB00287ED001203BE0707800286BD026F01CFE4FF6FE71D14F884202D1F88A48
:202F0000884206D0F982ADF82010532008A91FF0B1FA1EF0ABF924F05BFF002087F82600FE
:202F20001DF000F85AE0C748006807A908AA16F077FC07460198874212D29DF8300010B1E7
:202F4000FD208DF8300004203946142208AB23F0D9FCBD4907EB470001EB800001214172AB
:202F600000208BF832000120012101F019FC35E001208BF804004FF48060ADF8200008A8DE
:202F800018F0B4FC26F060FFAB484FF48051026821E008AFAB2000213A461CF0ABF804209C
:202FA00002978DF80C0002A80FF0E0F926F04CFF28784FF4805141F288320DE00FF0B2FEC7
:202FC000DBF8140050B9ABE702204FF4805140F6B83289F80200287827F077F8304625F0E5
:202FE00003FAE7E69BF8350028B1DBF81C000028F4D08047F2E70020002102220023ADF8BE
:20300000200002208DF8280008A825F097FBCDE748F204005EE0864800780138012857D863
:203020008048017803294BD0012951D1417800201EF084FD4CE025F05BF80420012101F089
:20304000AFFB0FE0012001211EF078FD0AE0002132220170744880F82A107448042100787A
:2030600027F033F824F0040036E049F2840031E00522027091F82C20920730D591F82E202D
:203080006ABB052202600120487000201BF0F0FE022023F0C1FFE5E7654800780138012848
:2030A0000BD80020CDE9080008A811F0AFFE20B15E48022100781BF0B5F949F2860009E07C
:2030C0008178022904D10121817000201EF012FD49F2040024EA00000DB0BDE8F08F052054
:2030E0000021ACE752480078002840F08680DFF838A1DAF80C50002D79D002A80DF1200B85
:2031000001300BF104060190002D6DD0A87A18B10138A872000646D19AF83180B8F1000F27
:2031200011D00020A91C08228DF82000304626F0FFFA584618F014FC28B12A88BDF822005D
:20314000314623F011FAAF1C0DF11F015A46384616F066FB8146384607A922F050FFB8F16D
:20316000000F05D09DF8300040F0020002281CD1DAF80800A0B101983946082226F0D8FA08
:20318000022000220C238DF80800BDF81C00ADF812002648007802A90091092120F085F8CE
:2031A00028461DF0E7FEED68AEE7384623F083FC9DF81F000128DBD15846142126F026FF1E
:2031C000214A09EB490000215B4642F8201002EB8000142241604172FF2049468DF83000C1
:2031E000042023F08FFBC3E7DAF80C0028B90F484FF4006100781CF01BFD49F6860069E7F9
:20320000013A012A08D803220260012048701BF02FFE012023F000FF287800287FF422AF91
:2032200004205DE778820020B42200200D83002010260020B8BD020060270020AB27002000
:20324000E07500204C820020903E00202DE9F04F97B0DFF8DC640546DFF8D8743078032829
:20326000387040F03C810020307038700DAC204626F07CFF2046002125F0FFFBDFF8B894E8
:20328000B8603A21484626F0C1FE4FF0FF30A9F81400C9F81000C9F80C0023F089F80020E3
:2032A00029461EF0C3F907F11001F86026F0E9FED7E90502DFF884B4B0FBF2F1C9B203296C
:2032C00028BF0321B2F5005F89F800108BF8001040F00381B0EB413FC0F0FF80F868002833
:2032E00000F0FB804FF40050FF224FF0000845F201174FF08855A9F80600FF2089F8032093
:2033000089F8058005900020CDE90800CDE90600CDE90A000C90FF200490CDE90200CCB233
:20332000A04580F0DF805FFA88F6002116AA0423304626F0C5F9DFF80C443046002115AA33
:20334000A0473046012114AAA0473046022113AAA04716996FF06F0050FA81F2C8B20E2A20
:2033600004D8012303FA02F23A4203D1A0F1FE02022A04D242F28352B2EB914F1ED030468F
:2033800014F0FCFBDFF8AC130028087040F0CB803046002116AA042326F092F9DFF8A443A4
:2033A0003046002115AAA0473046012114AAA0473046022113AAA0471699C8B208EB4802F0
:2033C000CA4609EB8204C1F30142090AE1759DF8561004F11609FD28627689F800002176DF
:2033E00001D9102135E0BDF854104FF6FF7291422FD10EA820F0B6FE304600214FF08852E1
:203400004FF400534FF4005726F05AF96FF0030313FA87F7B8B241594A1C01D10328F7D8ED
:2034200001220126D3B2042B06D8CBB2FF2B18BF16460132090AF5E74151C3480E99006808
:203440004268C248904799F8000057FA86F145F20117A1839DF852107028A176BDF850105A
:20346000E1839DF84E10E176BDF84C1021842BD07828D14624D07C280BD07E2815D0FE2812
:203480000DD0FF2818D10898CDF80C80013008901EE00798CDF810800130079018E00B9830
:2034A000CDF8148001300B9012E00998013009901FFA88F002900BE00C9801300C9007E024
:2034C00006980130069003E00A98D14601300A909BF8001008F1010821E70120307017B0EB
:2034E000BDE8F08F0C98934E00060BD10B98C0B2012807D80A98C0B2012803D80998C0B2F9
:20350000012812D98E48042200240270CAB2E0B2904211D214F032FB3178013408439BF855
:2035200000103070F2E7834E18E0089AD0B2A04216D1834800220270002089F8030089F8C8
:203540000100481E7E2189F80200B9F81C00A9F80600002021F0B2FB26F0A3FC3078BEE78E
:203560000A98000624D00B98059B000603D1039B100600F0858072480222DDB289F80230C9
:203580000270581C82B2B2FBF4F202FB110089F80100284614F0F2FA30702846FE2121F052
:2035A0008DFB012089F805000020FEF721FED5E70B98000605981DD003466148012289F823
:2035C00002300270C8B2591C89B2B1FBF0F202FB1010049A91B289F80100FF291ED102995D
:2035E000FF2940F0978081B289F80300490011FA80F093E0DDE90620104300063FF482AFC5
:2036000022F0AAFEA0423FD30898000600F08C8026F047FC9BF80010039BCEE7480089F842
:20362000032010FA82F009EB8000818B1829A9F8061093D30739D0B20EAA89B217F0CAF88F
:203640009DF843004007AFD5B9F80610BDF84620002399F8030000930323891A0EAA0739DA
:2036600089B207F0ABF800287FF478AFBDF8441000293FF473AF9DF848001DF041FA6DE7B3
:2036800022F06AFEA0424FD22D480321017022F063FE044689F80C0000EB400009EB8000BA
:2036A000408BA9F80D000DF071F99BF800102044B0FBF1F202FB110089F802000130C2B25F
:2036C000B2FBF1F202FB110089F801007C2021F00FFBFF2812D17E2021F00AFBFF280DD150
:2036E000FF2021F005FBFF2808D1782021F000FB014699F80100FF2918BF0846C1B289F8DC
:203700000300490051FA80F009EB8000808BA9F8060021E701EB410089F8031009EB80003F
:20372000808BA9F8060019E7054806210170FEE7882700207C230020F07A0020058300204D
:2037400011830020759B0200D8010010004003402DE9F84305460C46480413D4A00024D47E
:20376000A0075CD460057ED4200500F10681200700F13B81600040F1F6801AF085F924F0A7
:203780008044F0E026F09CF9DFF81C140F6D3FB1D7E90A1202F0E04201F00A01891849D0D1
:2037A00026F05DFC24F48044DDE0BB48DFF8FC73016841F080010160B878012804D10420EA
:2037C00021F0FEFA0020B87026F07AF90646042026F01EFADFF8D8130A68904219D12A7ED9
:2037E000BAB1FA68AAB1DFF8C003806C002800F09780C16840F603020988914206D0C06826
:2038000040F604010088884240F08A8005F1140088E040F6C4120860C5E9042284E009F0CA
:203820009BFCDFF88403006C002840F09D8024F0020498E0D7E90A65D7E90A12AA43B14334
:20384000C7E90A1226F00BFCB8680028AAD056EA0500A7D0D7F808C03869B7F93010324661
:203860002B46E0479EE726F02BF9054623F050FF002800F0B780CC48876B002F00F0B2809E
:20388000DFF828830420CB49002288F81800C64825F07CFB26F013FCC74826F0DAFBC748EC
:2038A0000068006B8047C8F810000125042088F8025022F075F8386990F82810C8F80400DE
:2038C000490703D5436A04210022984701201BF09DFDD8F80400457613F08AF9D8F804003E
:2038E00081680B461A465B684BB11E88A6F60306072EF7D805FA06F616F0830FF2D0537BFD
:2039000003F0F003013353730023FD6853602D88A5F60305012D00F28A80C8F810309FE08B
:2039200005F110001EF096FC304626F098FB22F04FF878B12E6A28466FF4807100224FF085
:203940000073B0479848806B10B11AF09DF801E044F00204EE692846002100224FF080638D
:20396000B04724F0005434B1974821462830BDE8F84326F05ABCBDE8F8838C4EB07801280E
:2039800004D1042021F01CFA0020B07022F020F838B170686FF4807100224FF00073056A45
:2039A000A847306950B185480068006B804732697168801A000BC860002030617A4D814994
:2039C0000022284625F0E2FA02203076286C20B17D480221283026F028FC1AF055F824F450
:2039E0000064C0E726F06BFB41E026F069F8054623F08EFEA0B1DFF8B48198F800000007CA
:203A00000ED498F9000000280AD4684613F0D0FB08B1009820B1DFF8B49199F8610048B386
:203A200026F04DFB1AF030F824F008049BE7034633F8385FA5B190F8445090F8456005F0B5
:203A4000F00580F8445006F0F005013580F8455000255360C5634587507B00F0F0005073FD
:203A600057480022C2610160012024F0A1FA24F4806478E700260127602E0FD009EB060021
:203A8000817A31B18772407A07FA00F0C0B221F0B1F92036F0E700BFCC210840032088F8B4
:203AA0001800454826F0D5FA26F009FB444F3E4D0022786900207861F968F8602846444994
:203AC00025F064FA3D480068006B8047D8F80C10D8F82020411A02EB1130B0EB113F38BFED
:203AE0004FF0FF3098F82410C8F8200021B1D8F80810B0EBC12F20D924F06AFAB8B140F65F
:203B00000900414621F83C0F002048804A7B02F0F00201324A730A7B02F0F0020A734860A2
:203B2000F8613960B8F83E0010F4406FFAD00020C8F82000012088F824001DF02FFD2548BD
:203B4000002101600220002124F032FA022021F037F9102012F0A8FC98F8010020B9D8F8ED
:203B60000400503026F05DFB1B48807810B90D2012F09AFC98F8250028B1002088F8250017
:203B8000052021F01DF9002088F818001348C8F81C000220B5F85610B5F85420914208BFFA
:203BA000072019F057F83DE738210020401F0020D0260020ED760200707900208C01001049
:203BC00000100440990F01007820002058760020EDDA01000000046094BC02006D05010051
:203BE0002DE9F04F8DB084780226142C00F214820546DFE814F03600150015008900C70081
:203C000011021102110211021102110211021102110211021102280066007900E100D0001B
:203C2000012095F80180022C8DF8310039D1E878291D03288DF82C0040F0E38009A8082277
:203C400025F076FDE2E0E978032900F2C281281DDFE811F00400BB01AA01B20119F09CF890
:203C6000D1E110208DF8240026F0C9FA98B10446DFF8B00321466060E81C10F035FC8DF8E2
:203C8000240028B9204623F0E5FD8DF8240010B1204626F0B2FA002609AB64200021012290
:203CA000ABE1E81C02218DF82C1026F0A4FAADF824000020AE1DADF82E0068798DF82D00C2
:203CC000AFE0E81C26F097FAD54C6668002E00F00E816A79002A00F041813368A91D184492
:203CE00025F026FD002003E1CD4EEC1C04212046376822F0A1FE002F00F08180B968814286
:203D000000F0CD803F68F6E701208DF832000020CDF82A00ADF82E00CDF8260002208DF896
:203D20002C00E81C26F067FAADF824006979A8798DF82D1025F08CFD8346E81D26F05BFA77
:203D400095F80C908046687AAC7A95F80BA04FEA49078DF83100384626F051FA002800F0FE
:203D6000CA80CDE9074806464FF0000805EB080047452FD00D3026F03EFA26F8080008F134
:203D80000208F3E7E87821F01FF98DF8240009AB642004213CE10026E878ADF8246009A932
:203DA00023F0F0FEBDF824000DF1320314210222ADF83200642020E1A888ADF82400E878E8
:203DC00009A924F0E5FC8DF832000DF13203642013211DE1BBF1000F00F0DB80437B0DF1DA
:203DE00031010E30CDE90496CDE9000107985946CDE9020A09A8089A1EF072F8CAE00120B6
:203E0000F4E0084626F0F7F9ADF82400287B8DF82D0005F10D0026F0EEF9ADF82E0005F193
:203E20000F06307825F014FD0546701C26F0E3F98146F07896F804A096F805B0022C8DF87F
:203E4000320008D1B01D26F0D6F9074606F1080007F1140103E0B779F01D07F10A0135B143
:203E600089B2FB2905D36E4E7068002847D0022009E00DF132018DE8030C09A84A463B46B6
:203E8000294603F01BFD8DF8310008F0E000202840F0C1800DF1310364202146B8E0EC1DA3
:203EA000204626F0A8F96D7A002D00F0948005F102098246484626F0A2F9002800F0958098
:203EC0000026457080462A460670786800EB0A0108F1020025F02CFC5FFA89F264201221C2
:203EE00043461EF0A5FD404626F087F994E010208DF8240049E010208DF832004FE007F1E9
:203F00001C0026F07CF90028706079D000F11C010C22016000208DF83100706809A9043088
:203F200025F006FC70680F214FF47A720561C1769DF832103B4DC782A0F8149080F81AB070
:203F400080F819A001762878082126F0BEF800289BD0287808211AF065FA96E7D6F800C054
:203F6000F38AB28A3169757EB77E06F11800CDE900C0301DCDE9025703F0A0FC8DF82400AD
:203F8000606826F03AF90020606009AB642011213EE002208DF83200304626F02EF90DF11E
:203FA00032036420032133E0007825F051FC48B325F03CF9002026E026F01DF9A97925F069
:203FC00057FEB0FA80F040091DE000781AF098FE19E0022017E03068B84201D1386830606E
:203FE000384626F00AF9002000E0102000262070642012210222234666701EF019FD0BE01B
:20400000102040E701208DF8240009AB6420102101221EF00DFD002630460DB0BDE8F08F5E
:2040200054260020048300202DE9F04F8FB00C4608040CD4A00426D4DFF888532878022853
:204040002DD1E10740F00381A10641D558E0DFF86C0300781BF082F990B10178DFF8602379
:2040600005460020602808D0135C08308B42F9D1104450F8041C28468847284624F0B4F90F
:2040800084F4004595E11DF00DFE28B10546FCF7EFFD284624F0A8F984F4005589E1A106D1
:2040A0002ED4012814D8E10600F11781610600F12F81210600F13D81E10500F13F812105DE
:2040C00000F14181E10400F15481610400F15B81A10700F1E280A10500F1FA80210700F12B
:2040E0001181610500F11981E0034FF0000540F160811CF0DFF8B648C57084F4803558E188
:20410000AE4F202138781FF093FADFF8C4824FF00109D8F80810084317D026F042F80546FA
:2041200026F03DF868434FF47A71B0FBF1F0D8F80810401A4FEA500938BF6FF00049002537
:20414000002964D0B9F1000F61D000200421002223F002F806464FF0060A4FF0FF0B4FF67B
:20416000FF7802AD002E4ED0304604210022374622F0F2FF06463889B0EB090038BF0020C8
:2041800038810004EED1B87BD0B301280AD17889400707D4386887F80DA0B721407B1DF05A
:2041A00039FDDFE739682A468DF806B0ADF80480086AC97F0DF0E6F801281BD1B87BB97A7E
:2041C0008DF838000907788A40F08002ADF8362006D540F4C070ADF83600387B8DF83A00D7
:2041E000786910B1007BADF81800284601A9002202F034FD387B87F80DA016F0ABF9B1E767
:2042000001207873AEE7DFF8C8816C4F4D4623F0F0F800200121002222F09EFF18B1387808
:2042200020211AF0FFF8002004210022002622F093FF002847D006890421002222F08CFF59
:20424000A0B1B1B20689B14238BF0E46F4E7644890F82C100F2906D190F82600022802D3D6
:20426000002021F06DFB84F00105A2E0A8B2B1B2814223D9D6FA55F0202180B242003878B3
:2042800025F023FF25F08DFF054625F088FF68434FF47A71B0FBF1F615E05248007808B332
:2042A00002AD284625F079FE25F02EFC4E490B784E490A7829461AF0F9FF20E03878202181
:2042C0001AF0B0F80026C8F8086084F0200570E015F07CFD84F400756BE008F0A1FA84F038
:2042E000100566E03E48418B012025F07EFF2878022804D13148012100781BF099FC84F098
:20430000020556E03248012184F00805817050E00CF0B0F984F040054BE0022808BF16F0A2
:2043200019F82F480121808C25F051FF84F480653FE024F04DFC84F080053AE022F018FD4F
:2043400084F4807535E01BF0C7FC2048007801280CD11D48007848B14FF47A7100FB01F235
:2043600016484FF40061007825F0ACFE84F400651FE01748017819B1002101701BF0ACFC41
:2043800084F4805515E01448006880B11149097801290CD180471148006800B180470748B5
:2043A0004FF480414FF47A72007825F08BFE84F4804528460FB0BDE8F08F00BF06830020BE
:2043C000B4B5020010260020BD270020BE270020E0250020BB270020602300206C2300209A
:2043E000E075002097270020C1270020C32700202DE9FE4F8846080426D45FEAC87004BFDD
:204400000020BDE8FE8FE548056825F0CAFE044625F0C5FE60434FF47A714FF6FF72B0FB7F
:20442000F1F14FF6FF70002D00F01A812B886C88CB1A9BB29C4240F21C81E31A94B2A34280
:20444000B8BF1A46ED68EEE7DFF840A3CDF804809AF800001AF082FF002800F0FC8006465B
:204460000078012840F0EC80DAF8041096F83390D6F814B096F8138021B1484688470028BE
:2044800040F0DE80718896F83100022222F0BCFB0546002842D0287A297CA0F10108FF295B
:2044A00000F0BB80707F4F46C00718BF0027E97C287D0144B94204D8E974FF2101FA00F0FA
:2044C0006874A969A87C96F83020896A10FB0710F16A25F02DF9287D697CB7FBF0F202FB26
:2044E000107001228240D2B20A436A74C8457CD196F83010AB7C13FB0713A9698B844FF4CD
:20450000FF7303FA00F0C0B21043FF2868746CD1287C1AF04FFFFF2028747FE0707FC0076B
:2045200000F08E80B07F25F093F9002800F0888004461C2025F063FE002800F081801C213B
:20454000054625F063FDB07F02A923F01BFB9DF8090002212875284623F07AFB708896F8BE
:20456000312096F8301096F83330A880287DEA71FF2202FA00F0687460680078A974287421
:20458000302013FB010080B223F020F80028A8615DD004461A20B11C2060708CA080A01D57
:2045A00024F004F9F27F04F13000B17F96F82830C4F81CB084F81980A062307CE273744AE0
:2045C000217563750121A075928C2282F28EA285F28C6282B6F81100A4F817009AF8000067
:2045E00085F8089019F01EFF55E725F0DAFD044625F0D5FD60434FF47A71B0FBF1F065491C
:2046000028806348097800794843642148436249097800FB0100688000E04F46E87C297D23
:204620006A7C01440139B94218BFFF2A0CD186F83300708806F11C0186F8342017F01BF993
:20464000304623F0D1FE03E7C845F9D1EFE7284623F00EFBF4E7019880F40040BDE8FE8F87
:2046600092B282424BD049480121007825F02DFD45E0A879022806D1287CFF2837D0A86983
:2046800023F0B2FE33E025F08CFD044625F087FD60434FF47A71B0FBF1F03F49288095F8A9
:2046A0003800097888421BD295F83620FF2A06D195F83720013085F8380085F8362095F87D
:2046C000351095F8394082F0FF0300200126C7B2A7421DD206FA07F71F4214D10130F6E731
:2046E000EA8BA87E95F82A10E9231FF0EBF8284623F0BEFA25480121007819F093FE88F008
:204700000100BDE8FE8FFBB201441A4385F83620AB8F95F83440C8B204FB10339EB2A64215
:2047200003D2FF2285F8362002E0FF2A08D12346184A174E1278367972436426724302E08D
:2047400095F83A2023466A802A8D0E0606D022F0200244432A852A6C224404E042F02001E1
:204760002A6C2985297A85F82E10E9796A6285F82D10D9B269840549496811B1884700287F
:20478000B8D105F1100004F019FCB3E734260020E0750020B1270020B72700205476002018
:2047A0007FB50138072800F24E810C46DFE810F0080050009F00B900D4004B012C0078000F
:2047C000CC4800780138012800F23D81002C00F04A810020032100241FF090FAC74DC84E29
:2047E0000420042132222870307825F06EFC0820002107F01DF930786C704FF4805104B0BB
:20480000BDE870401BF014BABA4D00208DF80E00002C287800F0BD8018B9092023F018FC96
:204820002878022806D10820002107F001F9042023F00EFC11F0D2FBB0480021C82201701A
:20484000AD480D2180F82A10AD4825F0C2FBB9E00020002525F004F8AA4801210170042024
:204860008DF80E0074B1A448A24C45852078012803D1072023F0ECFB2078022802D106206B
:2048800023F0E6FB9D480421322205709C48007825F01BFC984890F82B1001F0FE01D0E086
:2048A00005208DF80E0093480078022840F0CB80002C00F0F28091480022C178C2700170E3
:2048C00042F20800002107F0B3F88B480D2190F82B2080F82A10C17802F0DF02002980F8A6
:2048E0002B200CBF04200D2023F0B2FBABE0814800780138012800F2A68081480421322209
:20490000007825F0E2FB002C00F0D0807A4C7B48012101702069002800F0A4801FF01AFEB9
:20492000F8E70120002C8DF80E0051D072480021764A80F82A10744825F046F96D4C2078E9
:20494000012803D1072023F083FB2078022846D1062023F07DFB42E002208DF80E00664893
:20496000002C49D00021694A80F82A10664825F02BF9002003211FF0C1F95E4C207801280D
:2049800003D1072023F064FB207800284DD1092049E0594C022812D194F82E0078B194F859
:2049A0002B00002140F0200084F82B0005208DF80E00082007F03CF80A2023F049FB022006
:2049C00084F82A004C4890F82B1001F0EF0138E04848007818B94848022180F82A10474814
:2049E000002132220170464825F0F3FA424890F82B1001F0FD0124E0082180F82A103D49A0
:204A00000978012911D890F82E0070B900200DF10B018DF80B0052201DF02CFD24F09CFC15
:204A20001EF070FD002023F013FB3448002132220170334825F0CDFA2F4890F82B1001F0D6
:204A4000FB0180F82B102C480DF10D010022032390F82A008DF80D002948007800910A21F6
:204A60001EF023FC7FBD244C0720254D4FF4805184F82A0001208DF80E0028781BF0D8F8DB
:204A80000020002622F0DCFA2878022141F2883284F82B6025F019FBD5E71748022180F852
:204AA0002A1090F82B1041F02001CAE7124C022000218DF80C1084F82A001048017094F8B9
:204AC0002B0000F0FD0084F82B0001208DF80E0003A952201DF0CEFC24F03EFC1EF012FD03
:204AE000002023F0B5FA20690028ACD01FF032FDF9E700BF10260020B42200207882002064
:204B00000D830020AE270020E07500208027002092B0DFF8EC92D9F8000010B1002180F8F2
:204B20004510483021F01CF924F0CAFF8046072011F0A4F918F0C4F810B1B24825F06AF923
:204B40001AF0BCFC01AD284624F062FE0427002029468DF8047024F063FEAB4C206024F050
:204B6000BBFA0AAD284624F003FD002029468DF8287024F005FDA54E306024F0B7FA06AD8A
:204B8000284624F005FD002029468DF8187024F007FD31689E4D286019B99E4825F03AF9D1
:204BA000286810B99C4825F035F9206810B99B4825F030F91CF032FFD9F800004FF0FF3483
:204BC00038B1CDE9104410A9082223F001FD01281BD1CDE91044082025F011FB002846D048
:204BE00005460026052E04D825F08DF9A8530236F8E74FF6300029460822E880884824F02E
:204C000097FD284625F0F9FA09E0D9F80010CDE910440029DFD08248082224F089FD10AA96
:204C20000120082125F0AEF8092800D0D8B921F0D5FF800712D4CDE91044CDE90E440EABC0
:204C400001200021082224F009FC60B90EA810A9082223F0BDFC002800F0CB80704A012013
:204C6000082125F095F86E49E2201DF003FC12F06DFD282025F0C3FA6A4E0028306055D089
:204C8000694F6A4C07F10C0525F09FF924F0E0FC3068056007F1100525F097F964498968B3
:204CA000D1F84C1388473068456007F1140525F08CF91CF001FB3068856007F1180525F066
:204CC00084F919F0ADFE3068C56007F11C0525F07CF91FF0A1FE3068056107F1200525F065
:204CE00074F91EF0E1FC3068456107F1240525F06CF91DF037FB3068856107F1280525F08C
:204D000064F923F0E9FF3068C56107F12C0525F05CF920F0ADFF3068056207F1300525F0ED
:204D200054F9387024F0E6FA3068456219F0A0F8404841494FF00009CDF8409001603F48D3
:204D40000321119010A820F0E3FD24F04BFE404625F085F917F046FC25F0FDF801201EF0EE
:204D600067F81AF057F837480078022808D134480078012804D14FF40040012106F058FE9E
:204D8000294F4FF48041387824F036FF2E484FF0FF3100680DF0B2FCDFF8B08078684FF080
:204DA000FF310DF0ABFC3068002550F82510096821B9691C092D0D46F7D3EFE725F09EF841
:204DC000316851F825100C68C1F8009025F086F958F82520002021469047044625F08EF893
:204DE000316851F825100A6822430A6025F076F9D4E70B480EA9082224F09AFC33E700BF65
:204E000058270020ACB9020060820020648200206882002073BB020060BB0200AABB0200C6
:204E20001A820020DC82002090210020594D02000C010020782300207DCB0100008D1500EC
:204E4000D627002010260020B88200209CB802002DE9F04F89B08A4608040DD45FEACA7061
:204E600040F01E815FEA8A7000F12C815FEA0A7000F13481002045E1A44F38781AF06EFABE
:204E8000DFF89092A74DA24C06464FF0000B48F21508002E00F001813078312852D032282D
:204EA00038D0D32840F0B480F089404574D0382840F0AE80CDF820B0CDE906BB304606A95A
:204EC00020F02EFE9DF81C10052969D8307B002840F09E809DF81D00002800F09980052835
:204EE00000F29680069824F072F8002840F09080707C8949AC467870708808809DF81D005C
:204F0000214601388DF81D0006A890E82C002CC165467DE06079FF2827D0002016F0F8FBF8
:204F20000246B9F8701078783346CDF800B012F055FF607900286BD038780821322225F046
:204F4000C4F865E0B878032862D899F82E10284624F03DF800285BD1FF207149607170883F
:204F60000880B0886D49088052E099F81810706820FA01F2D2071ABF3144097A0021002276
:204F80001B2A43D020FA02F3DB0703D0B3181B7A99421ED80132F3E7304621F0B1FF37E069
:204FA000FF293DD0FE2956D199F872109DF81E00884202D860BBFF292AD11DF05DF80699C5
:204FC00000201B2859D021FA00F2D20756D10130F7E7B9F86E005049334608804F4802884F
:204FE0004F48018810200090002012F0F7FE0120F870B87840B93C2002214EF66022B8808B
:20500000387825F062F8B8780130B87084F805B0304623F0E9F938781AF0A0F9064638E78E
:2050200099F872109DF81E00884203D80028EFD1FF29EDD11DF020F8069838B1D9F8281082
:20504000814203D0C9F8280023F012F8BDF8200023F072FEDCE7307B0028D9D170882E49AD
:20506000802200230880707CCDE900BBCDE902BBCDE904BB11F01AFCCAE71B2099F81820D2
:20508000C1B28A42C4D02849087099F80700642100FB01F23878012151E72AF4004031E0D0
:2050A00021491C4C08782076E1201DF0E3F922F0DFFF0020A4F87000012016F029FB48F27D
:2050C00001001DE011488188B1B101394EF6602281800078022124F0F8FF0FE00C4C607947
:2050E00038B12179206823F072FF10B960790138607148F20B0003E00021817048F20300FE
:205100002AEA000009B0BDE8F08F00BFB8240020BC810020E0750020F6810020E67E0020F6
:20512000627B002000F8FF07098300202DE9F04F85B08846080418D4AA480078012802D80B
:205140005FEAC87156D15FEA88714DD4022807D1A5480078012803D15FEA487000F18A80E3
:205160005FEA087059D400202DE1DFF860A29AF800001AF0F3F8002800F023810546807FAD
:20518000D0B9688C132817D1DFF844926E880021D9F81C000F1D002908BF09F11C0758B17C
:2051A00001884468B14204D13C6025F026F82046F5E701462046EDE7A87A05F1020B022811
:2051C00040F0E580DFF8089295F83170BBF8006009F11C000068A0B10188B14202D1817871
:2051E000B94243D00430F5E779480121017088F00200E8E07648406900B1804788F00100A3
:20520000E1E0D9F81C00002858D0012204464068114601320028F9D152E07048DFF8B091FD
:20522000807BD9F81C60000760D424F0BAFF044624F0B5FF6A4A60434FF47A71B0FBF1F0FB
:20524000D9F818101288411A91427AD3B1FBF2FB0BFB02F2511A08445E49C9F818001FFA5D
:205260008BF00978884288BF8B4641E059490978C170A3E05E495D4800224FF6FE73002410
:205280000978023079B130F8025C9D4208D04588013D45802D0406BF027020F8023C012441
:2052A00001390630EEE734B1484804214FF4FA72007824F00AFF88F0040084E000240021A6
:2052C000454889B20088814261D2082024F097FF00285CD000210680877041603D4909781C
:2052E000C170D9F81C1079B360603FE04FF0010B00205FFA8BF44FF0000A071D002808BFD6
:2053000009F11C0796B1F078C0FA5BF1A042F17006D8756830463D6024F06FFF2E46F1E7DC
:20532000716830460AF1010A0E46E6E75FEA0A4007D100200821C9F81800244800781AF07C
:2053400077FC88F008003EE0C9F81C002348807B00070BD424F025FF044624F020FF6043BB
:205360004FF47A71B0FBF1F0C9F818001B48807B00070CD59AF8000008211EF059F930B950
:205380001748082102889AF8000024F09BFE2878022810D0012811D1297EAA89EB7C05F1D0
:2053A0001C006C696E7E8DE85A0005F11003594605F0B4FE02E0284615F072FD284623F0AD
:2053C00013F888F4004005B0BDE8F08F0383002008240020B62700207A270020E075002008
:2053E0007E27002010260020D62700206C670020912700202DE9FE4F074608680024B0B105
:20540000D7E9018A0E4624F05BFB8146D8F8E800082888BF0124B068204202D170682042E1
:2054200008D003203074484624F019FE00242046BDE8FE8FD8F8C01069B198F8F8100029DD
:20544000EFD006213174D8F8C410C8F8C4604E6198F8FC100DE000210522C8E93066C8E9C1
:205460003411C8E9361198F8FC10002908BF0122327400220129726109D102204FF4E0213B
:2054800088F8FC0098F8FB0020F082F9706889490138884205D8042020F082FA062020F00A
:2054A0007FFA022020F07CFA98F8F80040B9DAF83C003168814203D298F8FC0000286CD01B
:2054C000D8E9361009B118B900E028B324F085FDDAF80000416941F001014161484624F0F6
:2054E000BEFD98F8F80008B10124A0E708F16C05D8F8EC10284624F01AFD0028F4D0D8F879
:20550000C00003210174384613F09EF928460021002424F00CFD8AE79AF8040024F04DFEE4
:20552000654CDAF810100222206991FAA1F1B1FA81F14368D8F8CC00406800689847206922
:20554000DAF8141002224368D8F8CC0091FAA1F1B1FA81F14068006898479AF8040022F019
:20556000C7FB9AF8040024F02AFE24F036FD0020C8F8E000D8F8C0000068B0F5806F01D92A
:2055800024F02BFD98F8FE000028A1D1DAF80000416841F0020141609AE798F8F90020B17C
:2055A000D8F8EC0001307FF48BAF484624F057FDB2683AB1D8F8E8000221092838BF012131
:2055C000009103E008F1F40200200090746834B1D8F8E8000227092838BF012702E008F1EB
:2055E000F6040027DAF80000334D416841F002014160D6F800B0D946BBF1000F40D0D8F882
:20560000E800019209284FF0010011D22A68B9F1000F1FD0C0071DD02178DAF80000926868
:20562000904700281EBF3C44A9F101090120EDE72A68B9F1000F16D0C00714D02188DAF81E
:2056400000009268904700281EBF3C44A9F101090120EDE7DAF80000D26802A99047DDE907
:205660000120107007E0DAF80000D26802A99047DDE9012010800098ABF1010B0244BBE775
:20568000D8F8F000DAF80010CA680240102802D1002AF9D101E0002AF6D0706822F0B2F98F
:2056A000D8F8C0100020C8F8C400C8F8C00008741AE700BFFEFFFF0FC40100102DE9F04FB5
:2056C00087B0851C8346284624F0C0FC01AC06461821204624F09AFC9BF801A004F10B0075
:2056E0002946009524F036FD6FF001009BF80A1002240122ADF8180000208DF81A408DF8C8
:205700000C0001F00800C1F3C007890782EAD00507D40028B946A84608BF01240027002510
:2057200007E004244FF000094FF00008002808BF03248548007850EA0A000BD0834890F8FE
:205740002600082809D123F03BFF00285AD0BAF1010F57D14FF0C30901E04FF0C20900257C
:20576000BAF1000F10D07F48007890B9BAF1010F0FD1002E63D00020214601228DF81A00C2
:2057800001A814F0E7FB0AE001A81BF081FB86B91CE001A82146524614F0DCFBB6B1717951
:2057A000BAF1020F41F04002727104BF41F0600171719BF80A10490603D5717941F0800130
:2057C0007171B17900240131B17100E00124B0FA80F149090D423AD107D1002D18BF8146D6
:2057E00041F20100494623F07AF914B9009819F0ADFCBDF818004FF6FE71884218BF24F013
:2058000008FD24E0DEB33279A24218BFBAF1020F20D1D01EC0B2012802D857EA050006D15B
:20582000501EC0B2012822D859EA08011FD0308821F06AFC20BB3088ADF8180022E0022087
:20584000214601228DF81A0001A814F083FB07B0BDE8F08F4FF00009009953468DF81A9070
:205860003088ADF8180024F0B4FC012578E7012802D8308824F0CDFC009819F067FC0026A8
:20588000BDF818004FF6FE7188421ED121F0E4F910B1BDF8180011E0BAF1000F04D02C4D5A
:2058A000288821F031FC30B19BF80A0000F0020020F0A6F800E02888ADF818004FF6FE71DB
:2058C000884202D14FF0C70949E79BF80A200099534624F07EFC10B14FF001093FE71D48DA
:2058E000016811B1BDF818008847BDF818000099224606F059F90646174818490A680078D5
:205900004FF4803124F0E1FB01211548C17096B1AAF10100C0B2012807D81020BAF1020FAA
:2059200008BF08207179084370714FF0000901258DF81A9014E74FF6FE7000254FF00109A9
:205940000026ADF818000BE7F0240020E0750020702700207423002006830020A4BD02004F
:20596000E0250020102600202DE9F04F8DB0044600209A4616460F46CDE90B00CDE909009F
:205980008A488568804615F07BFB1C2803D015F077FB1B281BD1308840F60201884218BFB8
:2059A000B0F5C15F03D1F07B022810D93EE043F6070188420BD196F82400032807D330697B
:2059C0007B4940F0806020F0604088422ED100206FB366B3387825FA00F0C00726D030462D
:2059E000002124F006FC7348C4E90176006880B109A800900CA90BAA0AAB304609F04CFFDE
:205A00000B980B214FF6FF72502322F011FAFF280CD024F055F8684F06467878012802D817
:205A200040B1012070E0304624F019FB00200DB0BDE8F08F09F0A4FE60480DF104090168AE
:205A400041F0020101605E48C8F80000484623F0CFFEDFF870B15D494A469BF801009BF888
:205A600000500390584828301EF06BFF584859494A461EF066FF484623F0CAFDDFF8588176
:205A8000564A19214B46029540461DF0A5FC544A08F11C001A214B461DF09EFC5148524976
:205AA00024F0ABFA5148524924F0A7FA5148006810F4402F06D0504A07F1280004210023F8
:205AC00021F0F0FD9BF8020010B10D2010F0D6F908F1400023F065FA08F1380023F061FA2C
:205AE0004649002007223876B8843862386181F860200521C7E902104149F9613870042020
:205B0000002122F055FA78782F4941F8204001307870304624F0A3FABAF1000F02D0DAF864
:205B2000000008E00DF1040A36492022504624F08DFB4FF0FF30DAF80420BAF81010DAE985
:205B40000635002AB2FA82F608BF40F6C4122060012076096183256360762B4826764FF435
:205B6000FA766261C4E90362C4E90700C4E90903DAF80C0000B12062DAF8140000B1606209
:205B8000DAF8080000B1E06104F13800C82124F03DFA04F15000002122F04AFA1B4904F1C3
:205BA000B80024F02AFA204641E700BFCC2108400F0000056C260020401F002000200940C5
:205BC000110000E094BC0200782000205D860200787A0020C94E010038210020EDDA01007A
:205BE000A5BB0100B4790020C97602007079002009860200B44F0050A50302005876002031
:205C00006D0501008CB9020003680100FBA002002DE9F04F87B000240293002A00F03A81A7
:205C2000074603A892460E464FF0200B10300190504610F8011B25290CD0002900F0278160
:205C4000022EC0F0D680013E002F00F0D18007F8011BCEE09AF801002D2806D19AF8020043
:205C60000AF103034FF0010C03E00AF102034FF0000C30280CBF13F8011B01462A2920D1D4
:205C8000029D2A68111D2960D2F8009013F8011BB9F1FF3FDCBFC9F100094FF0010C2E29B2
:205CA0001ED11A4612F8011B2A291CD1029D2A68111D29609D1C126859782B4622EAE2786C
:205CC00021E04FF00009A1F13002092AE7D809EB890201EB4201A1F1300913F8011BF2E74C
:205CE0004FF0FF380FE04FF00008A1F13003092B08D808EB880301EB4301A1F1300812F89D
:205D0000011BF2E7134630284FF0000241F0200008BF4A466C2808BF13F8011B9A46692900
:205D200001D0642909D1029B1868011D196090456FF00903C8BF42461BE075290AD0A1F123
:205D40006F00092858D8DFE800F005695F5F835F5F5F5F05029D2868031D2B6090454FF09E
:205D60000803C8BF4246782908BF1023752908BF0A23DDF8048001684046654616F082FD64
:205D8000AC460546A8EB0001A9EB0100BCF1000F0DD109E0022E05D3013E17B107F801BB50
:205DA00000E00027013801340128F3DA01380A465AB1022E06D3013E1FB12B7807F8013BEE
:205DC00000E00027013A0135F2E70C44BCF1000F3FF42EAF0128FFF62BAF022E05D3013E17
:205DE00017B107F801BB00E0002701380134F1E70027013482461BE7632905D1029A106837
:205E0000011D1160006804E0AAF10100022E3AD300788DF80C00012103ADB5E7029ADDF8E6
:205E200004801023CDF800C01068011D11601099082200290168404616F024FD05464FF083
:205E40004000DDF800C005F8010DA8EB05019BE7029ACDF800C01068011D11601099056809
:205E60000E480029002D08BF0546284623F0D6FD8045014638BF414618F1010208BF01466C
:205E8000DDF800C080E7002103AD82467CE70FB100203870204607B0BDE8F08F74BD02000E
:205EA0002DE9F04F8DB00646806A447874B18D4909788C4280F012818B49023022462AB1C8
:205EC00030F8023B013A21F8023BF8E78748C18A708988422FD183480078A04240F2FE803B
:205EE000B589814A2146284622F01AFC284617F035F9064682480778BE4204D14FF6FE70DC
:205F000017F02CF90646BE4280F0E880DFF8F48108EBC6094F4657F8040F08B124F06DF9F9
:205F2000002C00F0B180600024F069F90028386040F0AC80D2E0B27C002A00F0CF806A4F20
:205F40000025AC4205D037F815208A4203D00135F7E7A04600E0A846002114F0FBF800284E
:205F600000F0AD8081464079012840F0A88099F8060010F0180F00F0A280B9F8021020460A
:205F800022F0BCFCA54202D3002800F098805848CDE90498B6F80C904FF6FE7A0078089042
:205FA000544800780A90002006960B9052481130099052480430079000200C90DDE9095622
:205FC0004FF0000BF6B135F8117C574518BF4F4502D1013E1C35F5E72046394622F08EFC4F
:205FE0000028F6D1287801380528F2D80C980BF1010BC007EDD00B985FFA8BF1C0B2814205
:20600000E7D356E0DDE907862EB338F8047C574518BF4F4503D1013E08F12408F4E720462C
:20602000394622F06BFC0028F5D198F8050001380528F0D898F8000001380228EBD30C9862
:206040000BF1010BC007E6D00B985FFA8BF1C0B28142E0D32DE05FEA0B6028D00B980006F9
:2060600025D101205FFA8BF50B90012D4FF001000C90A3D023F047FFC0B2B0FBF5F101FBC0
:2060800015000B90012098E7002038601E4989F80140A9F80250097808F83610F4B1E8B1D7
:2060A000114962000DB0BDE8F04F23F041BB4FF6FE770498069EDDF8148047800A4FB37CC2
:2060C000F47CB269B1890125581EB07470895FFA88F68DE8D000039510F02EFE0DB0BDE800
:2060E000F08F00BFD0BD020078800020E0750020DBBD0200C9BD0200C04F0020E0330020C2
:20610000CFBD0200F0470020CF2700202DE9F04F87B005462C200E4624F071F8002844D054
:20612000778B044623F002FD0021E1840121874208BF02212170707BA0703169081A60609E
:20614000204618F0AFFD3178834F01F00301387B012908BF05206070C0B223F039FB4FF024
:20616000FF316077A182217F326908440A44317D3261081A3075E070A069013017D0207C0B
:20618000032816D8DFE800F002170209062021466082284617F0E8FA10B304202146608215
:2061A000284607F0C5FE05461BE01025CFE0A32517E0A12515E00020B3256082F87A80B98E
:2061C00097F8410001280CD1A07D4FF6FF761AF011F90025A082B04208BF6FF05E0500E05C
:2061E00000252078022807D104F1080622F0E2FF0146304623F0AEFF280640F0A580574F44
:206200003878013801281AD894F8260010B994F82700A0B1A078E178227F08441044043015
:2062200023F0EDFF58B1A178E2780646207F114408446168021D304623F07AFA00E000266C
:2062400020460EF001FC05463878012802D12DB9002575E0022873D1002D71D0002E73D039
:206260000DF1080800274FF0010B4FF4D00908F1080A94F8260018B994F8270000285FD0EA
:20628000A178E278207F114408443146021D606823F04EFA94F8260020B184F82670C4F841
:2062A000129007E094F8270020B12D4884F82770C4F8120020460EF0C7FB10B10021054628
:2062C00039E04046142123F0A1FE608A8DF819B0F0B9A08A40F20311884216D0682817D1BF
:2062E0006068C17B052929D12A30FF21082222F079FE18B34FF0FF306946CDE90000194846
:20630000006823F027FFFC2000E0FF208DF81800504669460022002513F082FA01469DF83D
:20632000000038B104201422434620F0EBFA0321002500E0032103299BD101E00221FAE7D2
:2063400016B1304623F059FF204623F056FFE8B207B0BDE8F08F00BFE075002010260020C8
:20636000000003014C8200202DE9FC470546019007788B48C65D8B48F840ADF80260C007A8
:2063800040F00C810D2F13D1874D0DF10201A868D0F8282453209047BDF802104FF6FD7064
:2063A000814214D8019C208988B14FF0000A9CE00C2F16D0072F0CD0052F16D1A878012853
:2063C00000F0EC80287C304400F1240916E0A868BCE0A87880B1A87D00EBC00006EB8009EE
:2063E0000CE06868C08AC00502D44FF0000A01E04FF0010AB14605E006F11B09ADF802905A
:206400004FF0000A484621F0E1F800B30446072F3CD12878207068786070A878A070002843
:20642000E978E170D5F8051061604FD0A87D0028207241D0A96900293ED000EBC00004F10F
:2064400010068200304623F073F9E66037E00C2F40F0A4802C4654F8040F002800F09E80BC
:2064600023F02EFB804650488068D0F8541320468847484621F0AAF80446404623F0EFFD26
:20648000002C00F08B8023F0EEFC2EE023F0EBFC052F2AD104F1180561682422284623F0FF
:2064A00047F96169227C04F13C00656023F040F960682430606118E000202072E060A8691A
:2064C00098B123F09AFE0020A8750DE01B2004F110061B2220723046A96923F029F9E66086
:2064E000A86923F08AFE0020A8613048016819B120468847002846D10D2F2CD1019841682D
:206500000A78930720D42A4BC2F383029B7C9A421AD149783F2917D890F83000022813D100
:2065200094F8470004F146011DF090F901984FF6FF72418E91421ED14068807902281AD31E
:20654000204619F0C1FD48B317488068D0F8541301A8884722E00C2F0DD1019840781A2877
:2065600009D0606838B1C08AC00704D0207C04F10F011DF06BF9BAF1000F04D10D4821464F
:20658000007818F017FF0C2F08D1019850F8041F21B105498968D1F85413DAE7BDE8FC8723
:2065A00086BB020019C206000C01002054270020E0750020068300202DE9F04F93B00446EF
:2065C0001EF0D6FE08B1112006E1207F4FF6FE75B8B183480078810041EA40106188207789
:2065E000FF2020F005FD002180B1E08A05F1010B012640F00400E082207F40F00100207788
:2066000007E0002000264FF6FE7B08E000264FF6FE7B74480078022838BF0121880104902F
:20662000678838461DF0DAFC08B10020607694F81AA0BAF1000F04D16B4890F800A084F82F
:206640001AA094F90000C5B2B0F1FF3F07DDE07E40B966480178E1760131017002E005F06A
:2066600003052570207EDFF88491012805D199F80B0010B90DB900202076DFF8688198F8C3
:206680000000012831D899F80E0080072DD5E6B1E08A410606D5BAF1010F03D120F00400DA
:2066A000E08222E0A188E07E627DADF822708DF82AA0ADF824108DF82B0006A804F07CFFE4
:2066C00000283FF480AF25780FE038461DF086FC58B1002DDCD0206900780A2805D8012183
:2066E00001FA00F010F4836FD2D14FF6FE7A012D07D120690078022803D1E08A40F040007A
:20670000E082EEBBE08A10F0400039D198F80000012835D899F80E00800731D5049DA71D63
:206720006188607E3A462B4613F054FD28B100206076E08A40F02000E082387870B16188A8
:2067400004F108001CF084FE83466088834504BF00203870E08A40F04000E08220780128AD
:2067600004D0A18860882A460FF04AFFA18860882A460DF02DFB18B1E08A40F02000E082F1
:206780000DF11701204605F097FD06461FFA8BF0504508BFB4F802B0EEB12078617D94F8B9
:2067A0002C50B9F816209DF8173007948DF81800608DADF81A00E08A06ACCDE90254CDE9D8
:2067C00000101FFA8BF130460BF000FC102803D1304623F012FD102013B0BDE8F08F00BF2D
:2067E000B427002010260020C3BD0200E07500202DE9F04F95B0044680690DF15302002110
:20680000002690F800A09C200BF022FE84480078012808D8002004211DF01CFB06469DF8BC
:206820005300304400E00120C1B200258DF85300514540F28580A0EB0A005FFA80F80220CB
:20684000B8F1020F28BF80461A2008FB00F023F0D6FC0027002800F0D0800DF12601049671
:20686000F5B283464FF00009022606940590CDF81CA0043108915FFA89F0404564D25FFAD4
:206880008AF0A84262D220F0FBF9002853D065490446888C393123F091F94FF602708DF8C2
:2068A0002670ABF817002088A17AABF81200ADF828000DF126008BF8191012F009FD014624
:2068C0000BF10A00012903D1089923F043FC03E04FF0FF31416001602179B9B10120012225
:2068E000032938BF02228BF814204E4A92F8382001328BF8182003294FF0030238BF0122A8
:20690000891A18BF01218BF8151010E04548218890F8380000290A468BF8156018BF0122E2
:206920008BF8142018BF411E00208BF818108BF816000BF11A0B0AF1010A09F101099AE75A
