:200000000030012099880200D9A50200D9A50200D9A50200D9A50200D9A50200D9A502006C
:20002000D9A50200D9A50200D9A50200D9A50200D9A50200D9A50200A91A01002DE9F047AF
:20004000A8B004460078A0F1A0015C2900F26780DFE811F0500238025D005D000B02CA0110
:2000600086025D00C9026D01D2020F039D01AB020F01F80092017D02BE02C401D8000502B3
:200080002601E1001B018503600397037302B900B900B900C500A203B900B9008901B900F8
:2000A000B900B900B900B900B900B900B9009103BC00B900B900B900B900B900B900B900D2
:2000C000B900CF000601B900B900B900B900B900B900B900B9007003B900B9003E03B900EA
:2000E000AD03B900B900B900B9005401B900B900B900B900B900B900B900B900B900B900DD
:20010000B900B900B90077035D015D00B90060681221002808BF0221617001F068BA4D2860
:2001200000F25180A678DFE810F0D4044E00E40405065F044E004E00E406860433074E0003
:200140004E004E004E004E004E003B070C0794034E00EE045E0780074E00A107F6054E00C2
:20016000FE03AF074E003A047D078603F507B4034E004E004E004E004E0077034E0019080D
:200180004508F3064E004E004E004E004E004E004E004E004E004E004E004E004E002A08F1
:2001A00044076D084E004E004E004E004C034E006C074E0019044E004E004E004E008A0703
:2001C000560863088708122001F010BA6068002801F00B82006827F0BDFA01F007BA6068BC
:2001E000002801F002824168007823F0DBFD01F0FDB96068002801F0F881006805F070FF89
:2002000001F0F4B9A068002801F0EF81002060702DF0C2F9E4E1A068002801F0E681DFF8C3
:20022000BC1ED1F80D20C0F80D2091E82C0085600D7BC0E900230573B1F81110A0F8111030
:2002400001F0D1B9A068002801F0CF810020607024F0BAFB002801F00580A16800F003BFA0
:200260006068002801F0C18100680EF047FD01F0BDB96068002801F0B88100216170817845
:20028000008821F01FFE01F0B2B9A068002801F0AC8100216170411C25F00CF901F0A7B944
:2002A0006068002801F0A18100216170017D19B1C17CDFF8282E5174817D19B1417DDFF875
:2002C0001C2E9174017C19B1C189DFF8102E1181017B19B18168DFF8042E5160817C19B1E7
:2002E000417CDFF8F82D51730179002901F07F810068DFF8E81D086001F079B960680078DE
:20030000002800F0A48727F0D5F801F070B96068002801F06A81DFF8C81D097801293FF634
:2003200052AF4168008821F02FFA01F05FB96068002801F05A814188008828F063FF68B9A0
:20034000606801224188008823F0F4FE60684188008828F057FF002801F09A816168097956
:20036000417001F040B9A068002801F03E81002060702BF041F933E16068002801F0358112
:200380000021617000780AF04BFB01F030B96068002801F02A8101884088ADF81C00ADF896
:2003A0002C100BA9532025F063F807A9502025F05FF80DF11B01E12029F0F6FF60689DF858
:2003C0001B100079814201F00E818DF81B000DF11B01E12025F04CF801F005B90020607083
:2003E00027F09CF901F003B96068002801F0FD800178002900F03887DFF8E80C0DF12C0AF6
:2004000000250DF11C0800260AF10809CDE90955CDE907550788B74201F01181B1B20420AB
:2004200000221423CDF800A029F098FB6070A0B960684946082204302BF07CFB002801F0C9
:20044000FC8055B960684146082204302BF072FB00284FF0000508BF35460136DBE7002016
:20046000607027F093F901F0C2B86168002901F0BC80A068002801F0B88011F8012B00F8F9
:20048000012B2DF02BFA60680178002901F07E80DFF8500C0BAE002506F108080788AF42FD
:2004A00001F0A180A9B2042000221423009629F055FB607020B92CF025FF002801F0EF80E2
:2004C0000135ECE76168002901F08F8008784A783A258B7800288DF82C2008BF3B250BA8AA
:2004E0000130002B00F0DA86033110222CF0C4FC00F0D6BE6068002801F07780A168002980
:2005000001F0738001783A20002908BF3B200BAD002111222B462CF0D7FA0028607041F046
:200520006680D4E901109DF82C204270097800F8021B691C102200F0CDBD6068002801F0CC
:20054000548000F1120125F0F6F901F04FB86068002801F04A80007824F0CEFF01F046B8D4
:200560006068002801F041800178002900F09E86DFF8700B0DF12C09002709F108080588E0
:20058000BD4201F03480BEB2042000221423CDF80090314629F0E2FA607020B92CF0B2FE94
:2005A000002801F05E800137EAE76168002901F01C80DFF8340B2DF091F96068DFF82C2B09
:2005C0000189807A1180DFF8281B087001F00BB8A068002801F00980002060702CF0F8FE14
:2005E000A16800F041BDDFF80C0B4FF48071007820F004FA00F0F7BF6168002900F02A8624
:20060000DFF8F45A087885F8260095F872204888E882087A2876488968834868A862888992
:20062000A884887B85F83800C87B6871087CE8704869286388696863087F824202D024F0B5
:200640007FFD616805F139001D312DF09BF995F82600082840F00386DFF89C2A2120742118
:200660002CF058FF00200221002526F0F1FB00F0F7BD6068002800F0EF85007824F060FDBC
:200680006168DFF8745A287E4978884212D029760BA9E12029F088FE606841789DF82C00A4
:2006A000884207D08DF82C100BA9E12024F0E0FE60684078012101FA00F0A8622AF00CFF75
:2006C00000260120A5F870601EF0E6FF00F0C5BD6168002900F08B870820ADF82C00088884
:2006E000ADF82E00081D0BAC90E86800221D68C2087CD1E905231C31CDE910238DF83C00A5
:2007000004F11C0010222CF0B7FB204629F068FA00F06DBF6568002D00F06787EB88AA884E
:20072000698828782E890A35CDE9006516F02AFE00F05CBF0020DFF8C4196070E07800F0F2
:2007400093BC6068002800F05087DFF89419097801293FF638AD2CF0EFF800F047BF606889
:20076000002800F042870021617023F05DFAA168088000F03CBF0020607022F0D7F800F0FF
:2007800036BF6068002800F0308782884188007807F0F2FD00F02ABF6068002800F0258737
:2007A00000216170007827F085FD00F020BF6068002800F01C87817A008825F0BFF900F0A4
:2007C00016BF6068002800F0108702214FF6FC728DF8341001888A1A032A11D8022A0FD0E0
:2007E0002CF048FDADF82C0060680021837AC27A0091811C0BA826F05BF86070606801883A
:20080000ADF82C10837AC27A00210091811C0BA826F04EF800F0EABE61680220002900F0C4
:20082000E5860A888DF834004988ADF82C200BA8022200F0CCBC6568002D00F0D6862F7804
:2008400038462BF007FE002800F03485D02000F0CDBE6068002800F0C8860BAD011D082290
:2008600028462CF009FB03202AF026FE6068C07B28F0D0FADFF888088378606841888689A2
:200880000278807BCDE90060284615F0FBF800F0ADBE6668002E00F0A886357D28462BF0B7
:2008A000D9FD002800F0A186307F102141EA4007717F002908BF4700B07F002818BF47F045
:2008C0000807F07F002818BF47F0200796F82000002818BF47F0400796F8210000282846CD
:2008E00018BF67F07F07D6F818802CF03DFB002800F07B8605466068827A01788DF835200F
:2009000082898DF83410ADF836204A1E022A05D3032900F076870F2940F078874188ADF8AE
:200920002C1000F073BF6068002800F05E86A168002900F05A860021617000782BF004FA10
:20094000A168087040002DF07CF80146D4E90102516000782AF086F900F049BE6168002993
:2009600000F04386CA7A887A0B7B4D7B002A18BF40F00200002B18BF40F00400002D18BFBD
:2009800040F008008A7B002A18BF40F040000023C2B20888023125F06DFF00F027BE606831
:2009A000002800F022860021CDF83A10CDF83610CDF83210CDF82E1002794188ADF82C100D
:2009C0005AB1816849B10F2A28BF0F228DF82E200BA803302CF050FA606800780BA90122A2
:2009E0001FF0FAFC00F002BE6068002800F0FD8500216170017841B14078DFF808270121A3
:200A0000107063202CF086FD6068017941B14079DFF8F426012110706D202CF07BFD6068CB
:200A20008179002900F06784C1794FF400500DF057F800F074BC6068002800F0D685002123
:200A400061702A212CF0F2FEDFF8AC566068DFF8BC660822E98A0180A98C8181698BC18248
:200A6000DFF8AC160978817205F139010E30B04767682BF0E9FE0146B81C0822B04760682F
:200A800005F11C0108221830B0476068297E012280F82310DFF8681680F821208978CB07BC
:200AA00018BF80F824208A0744BF012280F825204A0744BF012280F826200A0744BF0122C3
:200AC00080F82720490644BF012180F8281000F08EBD6068002800F08885407818B1FF206B
:200AE000032126F0B5F92CF060FE904801210160FEE76068002800F07885032101718C490C
:200B0000016000F070BD6768002F00F06E852CF0AEFD0546002800F00985387828B1E988C4
:200B2000787821F001010843E880B87830B1E988F87821F0020141EA4000E880387930B194
:200B4000E988787921F0040141EA8000E880B87930B1E988F87921F0080141EAC000E880A9
:200B6000387A30B1E988787A21F0100141EA0010E880B87A30B1E988F87A21F0200141EA67
:200B80004010E880387B30B1E988787B21F0400141EA8010E880B87B28B1A968F87B21F08F
:200BA00001010843A860387C38B1A968787C21F00201002818BF0231A960B87C38B1A968C1
:200BC000F87C21F00401002818BF0431A960B87D38B1A968F87D21F01001002818BF103148
:200BE000A960387E38B1A968787E21F02001002818BF2031A960B87E38B1A968F87E21F004
:200C00004001002818BF4031A96097F8220048B1A96897F8230021F48061002818BF01F5C2
:200C20008061A96097F8260048B1A96897F8270021F40051002818BF01F50051A96097F811
:200C4000280048B1A96897F8290021F48041002818BF01F58041A96097F82A0048B1A96852
:200C600097F82B0021F40041002818BF01F50041A96097F8340048B1A96897F8350021F47F
:200C80008011002818BF01F58011A96097F8380048B1A96897F8390021F48001002818BF06
:200CA00001F58001A96097F83C0048B1A96897F83D0021F08071002818BF01F18071A96026
:200CC00097F83E0048B1A96897F83F0021F00071002818BF01F10071A96097F8400048B1BA
:200CE000A96897F8410021F00061002818BF01F10061A96097F84200002800F0788497F8D2
:200D00004310A86800290CBF20F0805040F08050A86000F06CBC6068002800F06684002191
:200D20006170007826F08AFC00F061BC7C052043010102066268002A00F05784A1680029E2
:200D400000F0538400206070107840B101200870DFF8680C0078002818BF01204870907827
:200D600040B101200871DFF8580C0078002818BF01204871D07848B100202BF091FED4E994
:200D80000121C0F34030C87101208871107950B30120087201F10C002BF082FEA168088268
:200DA000DFF8640C007802281DD1DFF8580C0078C8B9DFF8585C0120A847A16848610220B9
:200DC000A847A16888610420A847A168C8610820A847A16808621020A847A1684862202051
:200DE000A847A16888626068427932B1012281F82C20DFF8D42B1288CA85827932B1012203
:200E000081F83020DFF8C42B12884A86C27932B1012281F83420DFF8B82B1288CA86027AAB
:200E20003AB1012281F83820DFF8A82B127881F83920427A3AB1012281F83A20DFF8982B96
:200E4000127881F83B20827A3AB1012281F83C20DFF8882B127881F83D20C27A3AB1012221
:200E600081F83E20DFF8782B127881F83F20027B3AB1012281F84020DFF8682B127881F8EE
:200E80004120427B3AB1012281F84220DFF8582B127881F84320827B3AB1012281F84420A3
:200EA000DFF8482B127881F84520C27B002A00F0018401201122002681F846000BAD812012
:200EC00000212B462BF000FE9DF82C00A168002881F8470000F0D1832CF0B3FDA168002874
:200EE000886400F0E2839DF82C20691C2BF0C4FFDFE36068002800F0788390F90050284689
:200F00002AF0EAFEA068002800F06D8305706AE365680220002D00F069838DF834002E7BA3
:200F200000272888AB79AA886988ADF82C00A8682D69CDE90006CDE902570BA817F00CFC8F
:200F400054E36068002800F0508330462BF076FA0546002800F0FB82E888DFF8B41A40F081
:200F60000C00E88002202BF0D3FCDFF8A81A03202BF0CEFC40F20110ADF831006068016806
:200F800000790B918DF830000BA820F05FFD2DE36068002800F0298300782CF0C7FA22E372
:200FA0006068002800F021830088002110F016F91DE36168002900F0188302208DF834009D
:200FC000887B0D88421E8DF82400022AADF82C5005D3032800F0F4820F2840F0F682088A49
:200FE000ADF81C00F1E26068002800F0FE828178002900F0C182C2780321002A08BF012137
:20100000BBE262680220002A00F0F0828DF83400002310889178D278ADF82C000BA820F060
:20102000A1FEE3E22BF0CEF9E0E26168002900F0DC8208888A7801211CF092FED6E2606898
:20104000002800F0D282A168002900F0CE8200780BA929F0D6FF0020BDF82C206070D4E9EA
:201060000101A1F8012000780870C0E2022060706068002800F0BB824188007824F03EFF81
:20108000002840F0B082B2E26068002800F0AD82A068002800F0A9820026C0E900666068DB
:2010A0004188007829F094F9002800F0878266700546A16800880880A8780028887000F0BE
:2010C00096822CF0BEFCA1680028486000F08F828A78E91C2BF0D0FE89E200BF10220020DC
:2010E000C02600206EF80200AC260020AA260020A8260020617B0020506C00206228002030
:20110000F0790020A0280020907B002079CE0200942400206068002800F0678200782BF0B6
:2011200099F9002800F061820546007B27F074F80028607040F05B82DFF8780841680029AB
:2011400000F0558200220C462346002C00F09782AB4200F094821C681A46F5E76168022018
:20116000002900F043828DF83400002308880A794988ADF82C000BA829F03EFD36E2656814
:201180000220002D00F032828DF83400EE682F7C4FF0000C2888EB8869882A79ADF82C00CF
:2011A000287A6D698DE8C100CDE9035C0BA817F07BFA1BE261680220002900F017828DF81E
:2011C0003400052208884988ADF82C000BA800232AF066FD0AE26068002800F00682B0F833
:2011E0000110ADF82C1000780BA92AF083FDFDE16068002800F0F981017A427A00231FF096
:20120000B9F8F3E16068002800F0EF8102218DF834100188ADF82C10817B4A1E8DF8241086
:20122000022A05D3032900F0F3810F2940F0F681018AADF81C10F1E16068002800F0D581D7
:201240008178C2780088002327F05CFECEE129F0C7FECCE1022503E002266670C7E1002530
:201260006570C4E10120C1E100F10C010BA810222BF002FE6068D0E907120430CDE90F128E
:2012800007A929F0CBFC0028607000F003826168488804310BAA22F0A6F9A7E127F062FE1E
:2012A0000BAA284611212CF035F99FE101302BF00CFA9BE12BF0DAF8DFF8F8160978884224
:2012C00080F058812CF0D3F920B18146007B002800F0D6821C202CF0B4FB002800F0878133
:2012E0001C2181462CF0A2FA89F804604FF0010865682F78C6E2017A89B1C168008A420738
:2013000001D064290BD315F0DDFC002001210CF0E7FBDFF8B026352028212CF0FBF8606871
:20132000817C41B1808ADFF8A0260221108044202CF0F0F86068817D41B1008BDFF88C2630
:201340000221108046202CF0E5F86068817E41B1808BDFF87C260221108083202CF0DAF8FA
:201360006068817F41B1C07FDFF868260121107029202CF0CFF8606890F8201049B190F83F
:201380002100DFF85426012110702B202CF0C2F8606890F8221049B190F82300DFF83C26B8
:2013A0000121107043202CF0B5F8606890F8241049B190F82500DFF82826012110702E201F
:2013C0002CF0A8F8606890F8261049B190F82700DFF81026012110702F202CF09BF86068AD
:2013E00090F8281049B190F82900DFF8FC250121107030202CF08EF8606890F82A1049B172
:2014000090F82B00DFF8E425012110702C202CF081F8606890F82C1089B190F82D20102AE1
:2014200028BF1022016B8DF82C200BAD681C2BF023FD812011212A462CF06CF8606890F8CC
:20144000341049B190F83510102928BF1021826B62202CF05FF8606890F83C1041B1006C54
:20146000DFF88C250421106084202CF053F8606890F8441049B190F84500DFF87825012143
:2014800010704B202CF046F8606890F8461069B1DFF8645500F14701082228462BF0ECFCE3
:2014A000472008212A462CF035F8606890F84F1031B100F15002012008212CF02BF86068BE
:2014C00090F8581041B190F859008DF82C000BA9522023F0CDFF606890F85E1049B190F853
:2014E0005F00DFF818250121107033202CF012F8606890F85C1059B190F85D00DFF80025B7
:201500000121107032202CF005F822F0A9FA606890F8601000296AD090F86100DFF894147E
:201520004870DFF88C1481F8680060E01C202CF088FA00285BD01C2105462CF077F92846AC
:201540002E7126F005FF90B16768FFF7E6BA1C202CF077FA00284AD01C2105462CF066F91E
:2015600028462E7126F0F4FE00287FF4F5AC28462CF065FAD12039E0002103794279002BA4
:2015800018BF403100880FF001FD2FE0013007A929F044FB607050BB079800211822408899
:2015A0000BAB2BF091FA607008BBA068DDE90F12C0E9071209300BA9FEF7BCBFB12015E068
:2015C000103107A82CF08AF96168DFF8E403C08A854210D1887A0A7E0C310123009107A9D7
:2015E0000AF0EAFE08B1002000E002206070012028B0BDE8F08788890A7E8B7A07AE0025D1
:20160000CDE90006CDE902258A1C0BA9212011E000F1100107A82CF061F960688189027E2C
:20162000837A07AE0025CDE90225CDE90016821C0BA922201DF0C4FFD8E737463546012DE1
:20164000D5DB60680822011D48462BF015FC60681422D0E90701CDE90B01B9B20BAB04204A
:2016600008E00BAD142128462CF0E0F80420314614222B4628F088FAB8E78E6419E0AB42E0
:20168000B5D1A94208BF021D286810602846E3E0C820ABE70798182140880BAA03E6A06802
:2016A000DDE90B12C0E90712A1E70020886481F847006068007C70B110202CF0C2F903467C
:2016C000A06803653BB10121102280F84C10622000212BF0F9F96068417C31B1A168012243
:2016E00081F85420C24A12688A65817C39B1A168012281F85C20BF4A127881F85D20C17CBA
:2017000051B1A0680121082280F85E10A8495F3039312BF0B1FB6068017D59B1A56801205E
:2017200085F867002BF090F8014605F168002CF0D5F86068417D79B10BA9522028F034FE74
:20174000A068012180F870109DF82C10002918BF012180F871106068817D19B1A1680122BF
:20176000A1F87220C17D51B1A168012281F87420A34A1278002A18BF012281F87520017E9D
:2017800039B1A168012281F876209C4A127881F87720417E51B1A168012281F87820854AD7
:2017A0005278002A18BF012281F87920807E00283FF41DAFA168012081F87A007C4991F899
:2017C0002610082918BF042903D1A16881F87B000DE7A1B921202CF039F874280FD10BABBF
:2017E0002120002174222BF06FF99DF85210043901F0FB010843B0FA80F04009E5E70020B3
:20180000E3E7811C0BA82CF069F86068817B31B348002CF016F988B3616806460022887BA1
:20182000904206D00B6933F8123026F812300132F6E78B8CCA8AD1F828C091F82210FFB227
:20184000CDE90406CDE90271CDE900C80BA8294623F087FB607030462CF0F1F8C7E6838C63
:20186000C28A816A90F82200FEB2CDE90018CDE902600BA8294608F03FFDB7E61020B5E633
:201880004FF000084E4606F80C7F287A30734A48706014202CF0D5F80028B06045D014219E
:2018A0002BF0C4FF6268D9F8140052688179927901F0F00102F00F02114481716168D9F816
:2018C000140049680A780270D1F80220C0F80220CA79C271097B017350002CF0B2F8D9F835
:2018E0001410886060B1CA7900239A4208D065686D68AD6835F8135020F813500133F4E7E0
:20190000087B40002CF09DF8D9F81410086160B1097B0022914208D063685B681B6933F856
:20192000123020F812300132F4E7304629F088F9B82802D00746022806D1307826F06CFCC7
:20194000304629F07DF9074637B1B8F1000F0FD048462CF074F823E0B8F1000F3FF447AEBD
:20196000484626F0F5FC00287FF441AE484673E7D9F8140078B1816821B108462CF05FF8D6
:20198000D9F81400016921B108462CF058F8D9F814002CF054F80020C6E90000C6E902009F
:2019A000B82F3EF453AF022F3EF450AF1FE600BF506C00201C27002051640020A0280020EA
:2019C000907B0020187600204A280020462800204E280020962800209328002088280020EF
:2019E000942800209F28002089280020A22800203028002085280020542700208D280020B4
:201A00008E280020A5280020C02600201DE60100156E020041CB02002DE9F04F99B0804602
:201A20006FF007000DF11C0B063098F808105A46ADF85200D8F8040011F0E8FD002800F0D4
:201A4000B5809DF81E609DF81F409DF82070BDF826502BF009FC844240F0A88025F00300A4
:201A60004FF6F87480B2A04200F0A080012F00F29D80022E80F09A80B8F82800ADF84800D3
:201A8000B8F83200ADF82A009DF82200D0B1D8F804109DF81D209DF8383001202AF0ACF8CB
:201AA00008B1CF2083E0DFF85807C078012809D1B8F828002BF071FE20B1417901F0E701E4
:201AC000083141719DF8210068B1BDF82610FF2028F07EFC9DF82110D8B141F001012C26DC
:201AE0008DF8211016E09DF83900002864D09DF83D10FF2902D0002940F0ED80DFF804078C
:201B0000BDF82620C18A8A4240F0EE800120222607E0082601F00300012808BF46F0110666
:201B20000120B1073746DFF8DC9658BF67F07F07002808BF37469DF8220030B999F80B006A
:201B400018B107F02200222813D117F0400A58D0119899F80E200178920718D40C291BD86E
:201B6000012241F290438A401A4245D1032940D012E0F8B200F0420042287FF492AF11982F
:201B8000007800F0FE0006287FF48BAFDDE7A1F10C0212F10C0F2AD8B9F81600BDF82620BE
:201BA000824203D1BDF8280027F014F8D32017F066FE19B0BDE8F08FBDF8260025F00EFB49
:201BC0000238DFF84016B0FA80F0CA8A4109BDF82600904208BF0231002900F08C809DF885
:201BE0001E20002A00F03A8101F1400738E1032902D140780D2804D007A824F0F1FC0128E7
:201C0000D7D0B9F82400B8F8441081420AD198F84620B8F84210B8F82800002300930023FD
:201C200010F0AAFA9DF82200E0B1B8F84210B8F8280027F0E7FAB8B30646D8F804009DF8C6
:201C40001D10F2780844417B8A421EBF00227260F1700130042128F089F871688842A8D3DA
:201C60000130706099F80E008007A2D59DF84D0058B1BDF828002AF06DFA00286FD0D8F846
:201C80000400417801F0DF0141709DF82E00A0B3D8F804008179013981718DF82E1007F03B
:201CA0007F0009062CD12AE09DF84D00002841D0042028F093FE00283FF47BAF01464FF498
:201CC000B2700880B8F828004880DFF83C0500781FF06CFF6DE7109A9DF83C0023F01EFBB5
:201CE00030B1012000261CE790F826000428F8D10026002015E70027B2E007F07F00074658
:201D0000390702D44FF0000A49E0F9B24A0737D4C9069DF821103DD5C1F3820212B1072A61
:201D200018BF013A002A08BF074601F0E30040EA82012DE099F86C0001287FF493AF119841
:201D40000078062803D1BAF1000F7FF48BAFE01DBDF82A1080B281423FF42BAF44E1D3209C
:201D600017F08DFDDFF8A4040078002800F0AD80DFF89C1451F82000C0EB00108100A6E0E4
:201D80009DF8210000F0E00100F0E30040EAD1018DF82110D8F804004FF4805A017299F842
:201DA0002600092801D0042829D1B9F81610BDF8260088420AD025F011FA022806D09DF8CA
:201DC000210000F0030001287FF4F3AE9DF81E0000285BD011989DF838100078042808BFBB
:201DE00002296DD0072808BF042900F0838003287FF4DFAE07A8002112F0A4FED9E6FEB257
:201E000017F0610F49D0F00708D0B8F8281007A817F0F8FA002871D007F09F070025FEB2F8
:201E2000B80605D52AF01AFC07A815A906F0BCFB700640F13981B8F8281007A80DF1520276
:201E40002B4611F05FFC002800F08180054611980078012808BF4AF0100A25E101F12007CD
:201E600025F0BCF90138B0FA80F0400947EA00069DF81E0000283FF453AE119800782AF07B
:201E8000A5F9012818BF07F07E0649E62AF0E6FB07A815A906F088FB8BE69DF81E000128CC
:201EA00064D111980078032853D005285ED1B8F8281007A80DF15202002311F023FC78E698
:201EC00007A9002012F03AFA73E6D1480168D1480268BDF82800904701287FF46AAECE4820
:201EE0000168BDF828008847CC480168BDF8280088475EE607A819F0B1FE5AE629F08CF91B
:201F00009DF82E100546BDF8280021B9B8F8281088423FF484AFB9F81610814204D1B84865
:201F2000807800283FF47BAFB8F8281007A82A460BF0D8FA002800F09E8030074AF0040A9B
:201F4000BDF8260048BFE01DADF8520067E70025AAE0BDF826002AF0FDF838B1B8F82810F3
:201F600007A80DF15202002311F0CCFB9DF82E0088B326F08DFB00287FF41BAE9DF83900A7
:201F8000B8B3109A9DF83C009DF83D1023F0C6F9002873D09DF83D00002878D010992BF036
:201FA00089FB9DF82430ADF8520011209DF823209DF821104AF0400A002B08BF0920002A25
:201FC00018BF0830002918BF0130D8F804100A5C013A0A5465E09DF81E00012804D111983F
:201FE000007803283FF4E5AD07A8414620F0CAF8DFE59DF82010BDF826000029ADF85200ED
:2020000000F0CF804020BDF826100BF11D0200EAC7099DF820004B461AF066FE38B1D8F8F4
:2020200004004AF0200A017801F03F0101709DF8390048B1BDF826100BF1200024F0B2FA8F
:202040004AF0400AADF852009DF81E00012806D0BDF82810BDF82600002216F0DFFDBDF8D2
:202060002810BDF826004A4614F0B2F8002818BF4AF0200A15E007F0DF07CFE6BDF826103A
:20208000BDF828000B2200231CF076FB91E5BDF82600ADF852002BF080FB002808BF4AF08F
:2020A000400A29F0B9F80546A01DBDF8521080B20E1A5B4818BF2E460078012805D1E01D31
:2020C000B8F8321080B281422ED178B2B0F1FF3F3FF76FAD002E3FF46CADB8F808002BF072
:2020E000B0FC00283FF465ADB8F80820D8F8041005462AF0C1FE9DF81E10002098F808303C
:20210000B8F8282016908DF85410BDF8521015ACCDE9006ACDE90204284614F097FE68B362
:2021200028462BF08CFC44E5B8F828108142CCD0601CBDF8262080B28242C6D2BDF828003C
:202140008142C2D02BF029FB0028BED0017901390129BAD8408801218DF85410ADF86000ED
:2021600015AD284620F0D2FE0028AED0281D1FF091FB0028A9D028F0B3F8A6E720484078B8
:2021800000283FF416AD00208DF81860ADF81900DDF826004FEA3040059005A82AF08AFCC0
:2021A00007E531073FF52EAF9DF81E1001293FF429AF00211AF058FD20B140790138022885
:2021C000FFF420AFB8F84410BDF8520027F01AF830B1807829F0C0FA01380728FFF412AF41
:2021E000BDF8280029F0B6FF18B104208DF8200008E7BDF82610BDF82800022243E700BFDE
:2022000090260020506C0020617B002097280020E0F10200DC230020E4230020E0230020F5
:20222000A32800202DE9F04F8FB00C4648071DD4200400F17680E00400F1D081200600F145
:20224000EE81A00700F10582200500F13B82600600F13B82A00400F16C82600451BF0024EE
:202260004FF6C600844314F07FF827E2DFF8D0050178062900F21482DFE811F00700C0019C
:20228000120212020C021202C501DFF8B86596F837104A0700F1C9818A0700F1F1810907D5
:2022A00040F1FE810621017096F83A00002800F0C38222F089FB002800F0BE820546F06820
:2022C00040684078800740F19282287804AB0321002224F0CFF8002800F07782069801882A
:2022E000B42916D8B4214FF47A720180DFF858054FF4005100782BF000FBDFF8540501689F
:2023000039B1DFF850050078FF2814BF2878FF208847F06840684078C00740F05F820920EE
:2023200059E2DFF83805DFF82075DFF814A5DFF8405548F2040848F202094FF6FE7B008815
:20234000029038781FF006FC002800F0448106460078D3280DD1F089404563D0484535D0ED
:2023600048F20101884240F01C81304618F0F4FA17E19AF80010884219D1012856D0032856
:2023800040F00F81DFF8C40400780138012800F20881B078012877D0002840F0028170782E
:2023A000002800F0BE80002020F0C8FEF9E00A2840F0F780DFF88C1491F837003071096AD4
:2023C000002900F0EE80B01C8847EAE0DFF894040078002800F0E5809AF80000012840F0C2
:2023E000E0802AF0A1FC002840F0DB807088002840F0D7800AAD122128462BF017FA2BF0CD
:20240000EBF8304629461BF0D9F9BDF83400B0F5285FC0F099800120022121F0E9FCDFF828
:202420005054BEE030461CF011FCBAE0DFF81C0400780138012800F2B4807078DFF8042453
:2024400060B192F83C0092F83D10013082F83C00C0B2884202D901200021A0E09AF801007B
:20246000032845D0022832D0012840F09A80DFF8F4030078002800F08C802AF055FC002880
:2024800000F09380012085E07078002851D02AF0F1FE5845DFF8D0B34FF6FE7103D1BBF847
:2024A0001600884207D0ABF81610ADF81010532004A922F0DDFF21F063FE28F0CDFE002054
:2024C0008BF8260020F032FA4FF6FE7B69E0012050714FF48060ADF8100004A81BF01FFE82
:2024E0002BF07AF8DFF878034FF48051026827E0AB4604ADAB2000212A461FF09FF90420AF
:202500000A955D464FF6FE7B8DF82C000AA812F071F82BF061F838784FF4805141F28832C8
:202520000FE013F0E7FBC748406AD0BB20F0FEF937E002204FF4805140F6B8328AF802008B
:2025400038782BF0DAF92CE0C8480DF10F01006804AA19F0E7FD01460298C54D814213D215
:202560009DF8200010B1FD208DF820000420142204AB8B4627F008FB0BEB4B004FF6FE7B30
:20258000012105EB80004172AE48002180F83B1003E00020AB4981F83B000120012102F03C
:2025A000EDFF304629F0A6F9CBE6A64991F83E0020B1886A0028F4D08047F2E7002000210A
:2025C00002220023ADF8100002208DF8180004A829F066FB9DE748F204006EE09B480078AF
:2025E0000138012867D89648017803295BD0012961D14178002021F0FBFB5CE001200121D1
:2026000021F0F6FB4CE00021322201708D4880F836108D48042100782BF06FF940E049F2C3
:202620008400844315F03CF948E00521017096F83810890721D596F83A10F1B905210160F1
:202640000120B070002021F087FB022027F0D4FE26E07E480078013801280BD80020CDE91C
:20266000040004A816F086FC20B17748022100781EF0C4F949F286001FE0052000210DE039
:202680000421017096F83810C90709D096F83A10002941D028F0A0FF0420012102F06EFFB7
:2026A00024F004040AE08178022904D101218170002022F065F949F20400844320460FB04D
:2026C000BDE8F08F49F68600F7E722F07DF9D0B15C4F0546387801383870000616D05A4E0F
:2026E0004FF48041307824F02FF830B938692AF053FC10B928781FF0B9FB3078402143F692
:2027000098222BF0FAF84F48007810B90B202AF03BFC49F6C600D0E74C4909780139012968
:20272000BED8032101600120B07021F015FB01208CE7444EDFF81091DFF814A100250DF1CF
:202740001008002006F1080702903F6857B3D7F804B09BF800000028F7D0F028F5D80321EA
:202760000022434623F086FE0028EED006980188A1B94FF4407086F836502AF07DFF99F892
:2027800000000AA92BF03DF8DAF8001086F836500029DAD09BF800008847D6E701390180A3
:2027A0000120D1E7029999F80000C90706D04FF400514FF47A722BF0A0F803E04FF4005181
:2027C0001FF064FF4BF6C60077E7F06840684078C0070CD10E202AF0D7FB08E040F2093059
:2027E0002AF04AFF184800780AA92BF00AF8F06840684078C1073FF453AF17490968C1B1D6
:2028000028781FF033FB10B10E202AF0BDFB0E4D0C20402143F69822307028782BF06DF87F
:2028200040F20A302AF028FF28780AA92AF0E9FF36E780073FF534AF0E202AF0A5FB2FE7DD
:20284000BC7A0020E4210020687B0020C0260020142800205B280020382400206EF8020011
:202860002028002077280020506C002054640020684000202DE9F04F9FB00446DFF83C05AF
:20288000406818B18047002800F07782DFF83005DFF830B50F940DF1400A4FF0F808007885
:2028A0000BF11807411E002C0C9118BF01219BF80290002400258BF80F109BF801100E9189
:2028C00084421FD2A14517D0E6B200215246042330462AF091FA109810F4403F40F0040082
:2028E000C0B218BF01357C2806D130460621F82229F012F987F80080DFF8C4040C370134ED
:202900000078DDE7E9B201380022884204D19BF80500002800F04E82DDF83C80CDF834904C
:202920000DF15C09C8F50050B8F1000F0190404608BF10200125C0F50050049000200390EF
:202940000E9E0C9F0024380400F0F1819BF80F0008B98BF80F50F0B2002110AA04232AF05B
:202960004BFA1098B8F1000F19D010F4403F19D04FF40050DFF848140134013FABF810006F
:202980009BF80F00097801388BF80F0055FA86F0B0FBF1F202FB11068BF80D60D3E7002117
:2029A000069102E00E960C970694C0B20E9F0024702803D0F8B2702125F0C2FA0D9800213D
:2029C00010AA04235FFA80FA50462AF015FA9DF84000FE2803D05046FE2125F0B1FA5046AB
:2029E0000621FE2229F098F84FF400500D9B0BF116015A468BF80D70ABF81440ABF810004F
:202A0000FF20D67B8BF80E00F8B28BF80C30400050FA87F001EB8000B0F806B0DFF89C030B
:202A200004704FEA4A00A2F812B050FA83F001EB8001FE200D4605F8020F31F8060F0890C4
:202A4000DF480591047816A824F038FC56FA87F0CDF82CA0013890FBF4F101FB1400029094
:202A6000169809900E97FFB2574500F05A81A7EB0A00B0FA80F040090A90002007904FF0C3
:202A8000010AC00740F09E801FFA8BF4162C72D9CA480078002840F06A81ABF107063846FD
:202AA00011AAB1B21AF060FBBDF8528008F11000A0420FD89DF84E0096280BD1A6EB080420
:202AC0009DF84D2041463B461FFA84FA50461DF065FF18B3ABF1010B4FF0010A5C46A0B29D
:202AE000172865D33628A4F1160638464A4688BF2026A41BB3B2A1B22AF07EF93004EED0BB
:202B000019FA86F010F8010C962801D0013EF5E7DDF83C8006EB040B0020B2E79DF84F003F
:202B2000C10701D1800704D40020A346DDF83C80A5E708F1070083B2089813FA80F6B6F573
:202B4000005F01D90120F1E780B2A14918440A1A384651462AF050F907980130B6F5005F55
:202B6000079004D101204FF400510891DDE70020A3460896DAE7079810B192492AF0A2FA7E
:202B80000298C0B2874200F0D0808D490E9809785AFA80F0DDF82CA0B0FBF1F202FB11071B
:202BA000884907EB470001EB8000B0F81CB059E78548099900684268844890470020DDF8D2
:202BC0003C8005E0079810B17E492AF07BFA00200A900E980D9079480078002840F0C780C9
:202BE000089C1021A4F11000C4F5005283B20B98C1F2001224F07EFB704A117808430999F6
:202C00001070714800684268704890470A9888B16B4800783918013991FBF0F202FB1011BD
:202C2000C8B20D91400050FA81F0664901EB8000B0F81CB063480123A0F814B08346048278
:202C40000D98BBF912209BF80D108BF80E00059804800B9C204626F02FFDBBF914209BF8BD
:202C60000E102046022326F027FDBBF81000B8F1000F0AD00199DDF80CA0069E8142A2BF39
:202C80004FF0010A0121039102E0069E4FF0000A049981424FF07C01B8BF78210B9C20462C
:202CA00025F04EF910F0B8F807469BF80F000621FC22C01B8BF80F00204628F02DFFFC20A1
:202CC0009BF802109BF80E30287017FA86F001443B480E930078B1FBF0F202FB10118BF84F
:202CE00002100D910131CAB2B2FBF0F202FB10118BF8011003EB43010BEB8101898B10293E
:202D000006D10E990131B1FBF0F202FB10100E900C980125C01B0C905FEACA703FF410AE05
:202D200005E0012057460A9055E7029852E77C2025F020F90446FF2825D17E2025F01AF950
:202D40000446FF281FD19BF8014004EB44000BEB8000807DFF2812D019489BF80210007811
:202D60000144013991FBF0F202FB10140BE016480999006842681548904700221AE0204692
:202D80007E2125F0DDF8E0B2FE218BF80340400050FA84F00BEB8000808BABF806009BF878
:202DA000020025F0CDF800208BF80500BBF81000C0F5005210B21FB0BDE8F08F9823002035
:202DC000607B002090730020D801001000400340002000112DE9F04F89B024F0EFFDDFF8D3
:202DE00010158122DFF81485DFF814A5DFF82045DFF814E50A70DFF8FC140860DFF8F80463
:202E0000FF2101700020DFF80415A8F800008AF80000DFF8F0040968007891F808B04FF6B5
:202E2000FE718EF8000059448AB2A168D1F80031DB899A4200F267810422DFF8DC54A8F8DA
:202E40000020DFF8D02412689668330ECEF80C60C6F301592B706FF0FF0303EA1627B3B2FE
:202E6000D1F8B86047EA1327AEF8047036781EB9B9F1020F00F04781B9F1030F00F0438184
:202E80001B0A03F0070316B1002B00F03C81DFF88CC4042B9CF800C008BFBCF1000F00F054
:202EA00032813EB1DFF878643678862E02D1022B40F02981BB0416D4BBB203F00703022B41
:202EC00008BFBCF1000F20D0DFF854140978862909D10020764624F0C5FDDFF84004B6466D
:202EE00090F800C0307800284ED0BCF1000F4BD1012800F0088103283FD0022844D1BEF8F3
:202F00000400400740F0FF803EE0D1F8D40090F88300022800F0808027460520147BF2467E
:202F2000A946A8F800002AF081F90546DFF8F003007886286DD1B868016C096811B9D0F865
:202F40004C05804760B2002100262AF0C3FDB9680A6C12685077086C00688677086C006899
:202F6000C47728462AF099FCBAF8041099F8000001F010011FF0D6FD4EE0BEF8040000F0E6
:202F80000700032840F0BF80BEF80400010700F1BA80810402D4810500F1B5809EF80E20D8
:202FA000C2F38107012F00F0AE809609012E00F0AA80B9F1010F11D840F0020101F00701CF
:202FC00003290BD117B93F2A40F29D8037B9A168D1F8AC100978002900F095804FF6FB7183
:202FE000B9F1020F0BEB010C19D1CF4BD95D9B5D03EB01090023402AB7FA87F238BF012317
:2030000052091A40430616D4002A08BF09F1020915E028462AF041FC28F05AFF75E0C14B46
:20302000402AD95D9B5D03EB010908D3420648BFA9F1020903E0002A18BF4FF00209C0F350
:2030400000205FFA89F11FFA8CF30A1A8EF801009A4258DC60440391B346401AA168AEF8F0
:2030600006007430D1F8501280B28847A6490028886048D07421CDE901972AF0D7FBA24FA3
:203080000020B870A548007820B9387900F020008AF8000078789AF80010DFF878C24FF085
:2030A00000092E4600299A493DD000284FF000003AD1B88800F00700032807D0012832D1A3
:2030C0008868D0F8D40090F8820060B3C8684069007818B129F0AEFBFE280DD08C488068AC
:2030E000D0F84C02804738B989488068D0F844028047002800F0F780834F0120B870DFF8F3
:2031000014C22E4610E029F0F9F92AF08FF8814900240A6813681C7112680A602AF0BDFBAB
:2031200009B0BDE8F08F0020BC6804F1740184F830B06160A1657978BB88FA880029A381DE
:20314000029B228184F83A30337808BF994697F80EB084F84990019DA4F85C20FF22B8F8CF
:203160000030A273CBF301195E1A797BA8F8006001F0780160F3820101EB090020742806CF
:2031800000F0AE80DCF8000004AF039A10FA86F000F1080138462AF07BFC56FA85F0CBF3E1
:2031A0008105A8F80000207C00F04008CDB3B9F1020F06D1B8F1000F03D0B4F8440004AFD5
:2031C00006E0BDF810000237A4F84400A4F84200564EF189884203D04FF6FF7188425ED1E4
:2031E000032D11D104F1320039462AF0CBFB464CF11CA068323027F059FF454900284ED0EB
:2032000094F80EB008370EE037F8020BB1898842608606D04FF6FF713B4C88423C493ED1A1
:2032200001E03B49384CBBF1400F20D3B9F1020F06D16DB9B8F1000F0AD13348806803E026
:20324000A068017C490603D439880237A0F84210BBF1C00F06D32C4C3946A06828302AF01A
:2032600091FB03E0284C3888A168088528498968A088D1F8AC201278B2B1B9F1020F13D269
:2032800000F00700012802D003282FD11E4C6DB9264AA368D289B3F84230934206D01BF0D8
:2032A0003CFF1BF0B3FD30E700F00700032806D0012815D1D1F8D40090F8820080B1A0681A
:2032C000D1F848128847104A50B90020D17B9070907BC1F3011100F0780008449168087433
:2032E00008F0B6F911E7084FB87808E7064CDDE7797B0020087B00207E7B0020507B0020E8
:203300007C7B00207B7B0020B02500203C7B00200C010020947A00208B7B00208A7B00200E
:20332000817B002010F802000CF80200C07900202DE9F04F97B0DFF8DC640546DFF8D874E7
:2033400030780328387040F03C810020307038700DAC20462AF022FB2046002128F0AFFEFB
:20336000DFF8B894B8603A2148462AF05FFA4FF0FF30A9F81400C9F81000C9F80C0026F0DF
:20338000B1F90020294621F003F907F11001F8602AF095FAD7E90502DFF884B4B0FBF2F179
:2033A000C9B2032928BF0321B2F5005F89F800108BF8001040F00381B0EB413FC0F0FF8033
:2033C000F868002800F0FB804FF40050FF224FF0000845F201174FF08855A9F80600FF20CE
:2033E00089F8032089F8058005900020CDE90800CDE90600CDE90A000C90FF200490CDE92F
:203400000200CCB2A04580F0DF805FFA88F6002116AA0423304629F0EFFCDFF80C44304682
:20342000002115AAA0473046012114AAA0473046022113AAA04716996FF06F0050FA81F211
:20344000C8B20E2A04D8012303FA02F23A4203D1A0F1FE02022A04D242F28352B2EB914F60
:203460001ED0304616F08AFFDFF8AC130028087040F0CB803046002116AA042329F0BCFC59
:20348000DFF8A4433046002115AAA0473046012114AAA0473046022113AAA0471699C8B28E
:2034A00008EB4802CA4609EB8204C1F30142090AE1759DF8561004F11609FD28627689F858
:2034C0000000217601D9102135E0BDF854104FF6FF7291422FD10EA823F0F0FE3046002145
:2034E0004FF088524FF400534FF4005729F084FC6FF0030313FA87F7B8B241594A1C01D1BE
:203500000328F7D801220126D3B2042B06D8CBB2FF2B18BF16460132090AF5E74151C3483C
:203520000E9900684268C248904799F8000057FA86F145F20117A1839DF852107028A1767F
:20354000BDF85010E1839DF84E10E176BDF84C1021842BD07828D14624D07C280BD07E2827
:2035600015D0FE280DD0FF2818D10898CDF80C80013008901EE00798CDF8108001300790DF
:2035800018E00B98CDF8148001300B9012E00998013009901FFA88F002900BE00C9801302B
:2035A0000C9007E006980130069003E00A98D14601300A909BF8001008F1010821E70120EE
:2035C000307017B0BDE8F08F0C98934E00060BD10B98C0B2012807D80A98C0B2012803D8C4
:2035E0000998C0B2012812D98E48042200240270CAB2E0B2904211D216F0C0FE31780134AD
:2036000008439BF800103070F2E7834E18E0089AD0B2A04216D1834800220270002089F88D
:20362000030089F80100481E7E2189F80200B9F81C00A9F80600002024F082FC29F0FEFF41
:203640003078BEE70A98000624D00B98059B000603D1039B100600F0858072480222DDB24E
:2036600089F802300270581C82B2B2FBF4F202FB110089F80100284616F080FE307028465A
:20368000FE2124F05DFC012089F805000020FFF7F1F8D5E70B98000605981DD00346614817
:2036A000012289F802300270C8B2591C89B2B1FBF0F202FB1010049A91B289F80100FF2962
:2036C0001ED10299FF2940F0978081B289F80300490011FA80F093E0DDE9062010430006BE
:2036E0003FF482AF25F0D2FFA0423FD30898000600F08C8029F0A2FF9BF80010039BCEE73A
:20370000480089F8032010FA82F009EB8000818B1829A9F8061093D30739D0B20EAA89B2AE
:2037200019F022FD9DF843004007AFD5B9F80610BDF84620002399F8030000930323891AC9
:203740000EAA073989B208F003FF00287FF478AFBDF8441000293FF473AF9DF8480020F006
:203760009BF86DE725F092FFA0424FD22D480321017025F08BFF044689F80C0000EB40000E
:2037800009EB8000408BA9F80D000FF045FB9BF800102044B0FBF1F202FB110089F80200D7
:2037A0000130C2B2B2FBF1F202FB110089F801007C2024F0DFFBFF2812D17E2024F0DAFB29
:2037C000FF280DD1FF2024F0D5FBFF2808D1782024F0D0FB014699F80100FF2918BF084644
:2037E000C1B289F80300490051FA80F009EB8000808BA9F8060021E701EB410089F80310DF
:2038000009EB8000808BA9F8060019E7054806210170FEE75628002098230020907300201C
:20382000607B00206F7B002099D20200D8010010004003402DE9F84305460C46480413D489
:20384000A00024D4A0075CD460057ED4200500F10681200700F13B81600040F1F6801CF0BE
:203860008FFC24F08044F0E029F0E0FCDFF81C140F6D3FB1D7E90A1202F0E04201F00A01C1
:20388000891849D02AF009F824F48044DDE0BB48DFF8FC73016841F080010160B87801289C
:2038A00004D1042024F0E8FB0020B87029F0BEFC0646042029F044FDDFF8D8130A6890422D
:2038C00019D12A7EBAB1FA68AAB1DFF8C003806C002800F09780C16840F6030209889142B1
:2038E00006D0C06840F604010088884240F08A8005F1140088E040F6C4120860C5E9042249
:2039000084E00BF047FDDFF88403006C002840F09D8024F0020498E0D7E90A65D7E90A1228
:20392000AA43B143C7E90A1229F0B7FFB8680028AAD056EA0500A7D0D7F808C03869B7F9A5
:20394000301032462B46E0479EE729F06FFC054627F0E6F8002800F0B780CC48876B002F4A
:2039600000F0B280DFF828830420CB49002288F81800C64828F051FE29F0B9FFC74829F043
:2039800086FFC7480068006B8047C8F810000125042088F8025025F095F9386990F8281009
:2039A000C8F80400490703D5436A04210022984701201EF027F9D8F80400457615F0D0FC99
:2039C000D8F8040081680B461A465B684BB11E88A6F60306072EF7D805FA06F616F0830FD8
:2039E000F2D0537B03F0F003013353730023FD6853602D88A5F60305012D00F28A80C8F8DA
:203A000010309FE005F1100021F066FC304629F044FF25F06FF978B12E6A28466FF480719C
:203A200000224FF00073B0479848806B10B11CF0A7FB01E044F00204EE692846002100225E
:203A40004FF08063B04724F0005434B1974821462830BDE8F8432AF008B8BDE8F8838C4EAE
:203A6000B078012804D1042024F006FB0020B07025F040F938B170686FF4807100224FF0E3
:203A80000073056AA847306950B185480068006B804732697168801A000BC8600020306162
:203AA0007A4D81490022284628F0B7FD02203076286C20B17D480221283029F0D6FF1CF0B2
:203AC0005FFB24F40064C0E729F011FF41E029F0ADFB054627F024F8A0B1DFF8B48198F8F3
:203AE000000000070ED498F9000000280AD4684615F016FF08B1009820B1DFF8B49199F8AF
:203B0000610048B329F0F3FE1CF03AFB24F008049BE7034633F8385FA5B190F8445090F857
:203B2000456005F0F00580F8445006F0F005013580F8455000255360C5634587507B00F035
:203B4000F000507357480022C2610160012027F063FC24F4806478E700260127602E0FD0C0
:203B600009EB0600817A31B18772407A07FA00F0C0B224F09BFA2036F0E700BFCC2108408E
:203B8000032088F81800454829F081FE29F0AFFE444F3E4D0022786900207861F968F860AC
:203BA0002846444928F039FD3D480068006B8047D8F80C10D8F82020411A02EB1130B0EB7D
:203BC000113F38BF4FF0FF3098F82410C8F8200021B1D8F80810B0EBC12F20D927F02CFC0F
:203BE000B8B140F60900414621F83C0F002048804A7B02F0F00201324A730A7B02F0F00248
:203C00000A734860F8613960B8F83E0010F4406FFAD00020C8F82000012088F8240020F04D
:203C200093FC2548002101600220002127F0F4FB022024F021FA102014F044FF98F8010064
:203C400020B9D8F80400503029F00BFF1B48807810B90D2014F036FF98F8250028B10020DC
:203C600088F82500052024F007FA002088F818001348C8F81C000220B5F85610B5F8542020
:203C8000914208BF07201BF0F9FB3DE738210020401F00206C270020FDAA0200407100201B
:203CA0008C010010001004401D32010078200020C86C0020E50102000000046058F702001A
:203CC000012B01002DE9F04FAFB004460020ADF8280094F82400012809D1DFF8100494F8A2
:203CE0002810807831B1002800F0E98102E0DFF8FC03807848B9207D00F0FE00022804D1F5
:203D00002FB0BDE8F04F1BF091BCDFF8E0733878012806D1DFF8D8033979007E814240F0D9
:203D2000CD80DFF8D8534FF4FA60E060286829F0F3F918B1E1680844E06007E0E168286864
:203D400029F06FFDDFF8B80329F099FE94F825008DF86C0048B1022809D11BA804F118012C
:203D60000822043029F058F901E0E06A1C900DF12B051BA80AAA294619F028FC0646D0B98E
:203D80009DF8381094F8260001F0030181420DD105F10E0004F13401042229F03DF9BDF8A6
:203DA0002810022041222B461EF0E2FF9DF86A0008B1D4490870B878B0B3012840F07F81AD
:203DC00094F83800E3280DD1B86818B18047002800F07581F86818B18047002800F06F8180
:203DE00094F83800E22804D194F82800002840F066810020002E18BF0546002128226F7B68
:203E00001EAE304628F055FF01A80021032228F050FF94F83800E32840F0C0809DF80400C6
:203E200040F00801E320DFE0207D042800F24781012101FA00F010F0130F00F0408101A87B
:203E4000002124224FF0000828F033FF1EAF04F1180B04F12C090026BD1C07F1060AB8F1AB
:203E6000040F45D85FFA88F0394624F048FD06460D2820D00A2E00F08C8094F825009DF87E
:203E800078104140490701D0022614E048B948465146042228F0C4F8002840F01F8194F838
:203EA0002500022807D158462946082228F0B8F8002840F0078108F10108D0E794F838007F
:203EC000E32840F0FC808B4829F0D7FD00283FF428AF884C204629F0D4FD8748C8210068F5
:203EE00029F09FFC20462FB0BDE8F04F29F0C7BD002E4ED10020616B9DF885509DF8782078
:203F00009DF87930069194F83810C5F382068DF81C1094F82910002918BF083606F15001BC
:203F2000182606EAD202104403F0010240EA4210BDF8042040EA8510C0B2104340EA012011
:203F4000ADF8040094F8400058B18DF81D0029F0E7FD089028B194F8402004F1410129F097
:203F60005BF86348C08AADF8240094F9150010F16D0F0146D8BF6FF06C0129F09CF8C8BF33
:203F80003B21A07D002818BF012041EAC0108DF82600E17D01A801F043FF90E094F8251077
:203FA00011F0070112D0022914D106F1080004F11801082229F030F894F8380094F83010FE
:203FC000E3288DF888100AD10A212BE7E16A1F91002105E09DF8041021F0080100E00221DA
:203FE00094F8292041EAC2019DF80520022301F00F0163F3051294F82630022B11D394F832
:204000002760012E12D0AEB9C7F38206042E69D80127B74017F0160F64D022F017023244CC
:2040200008E0002B08BF22F0170203E042F0040222F0130263F30511237D032B03D1E36BDD
:2040400042F0080227938DF89000606BC2F3C0035B02239002F0070043EA8010C2F3001384
:20406000C2F3401240EA832040EAC2200844ADF8780094F8400020B18DF8910004F141000E
:2040800025901B482B46C08AADF8980094F9150010F16D0F0146D8BF6FF06C0129F00BF82B
:2040A000C8BF3B21A07D002818BF012041EAC010E17D8DF89A001EA81BAA0AF0C5FA2FB045
:2040C000BDE8F08F01A859460822083028F0A4FF94F830008DF8140002200CE7D9F800001C
:2040E000029007E702F0E802A4E700BFE8240020506C002050720020F07A0020EC7A002020
:204100000C7200209D2600202DE9FE4F8846080426D45FEAC87004BF0020BDE8FE8FE54824
:20412000056829F05CFC044629F057FC60434FF47A714FF6FF72B0FBF1F14FF6FF70002DF6
:2041400000F01A812B886C88CB1A9BB29C4240F21C81E31A94B2A342B8BF1A46ED68EEE725
:20416000DFF840A3CDF804809AF800001DF0F2FC002800F0FC8006460078012840F0EC8092
:20418000DAF8041096F83390D6F814B096F8138021B148468847002840F0DE80718896F8C9
:2041A0003100022225F048FF0546002842D0287A297CA0F10108FF2900F0BB80707F4F4611
:2041C000C00718BF0027E97C287D0144B94204D8E974FF2101FA00F06874A969A87C96F8EC
:2041E0003020896A10FB0710F16A28F045FE287D697CB7FBF0F202FB107001228240D2B2A0
:204200000A436A74C8457CD196F83010AB7C13FB0713A9698B844FF4FF7303FA00F0C0B2C7
:204220001043FF2868746CD1287C1DF0BFFCFF2028747FE0707FC00700F08E80B07F28F06A
:2042400093FE002800F0888004461C2029F0F9FB002800F081801C21054629F0E7FAB07F50
:2042600002A926F0CEFE9DF8090002212875284626F072FF708896F8312096F8301096F82B
:204280003330A880287DEA71FF2202FA00F0687460680078A9742874302013FB010080B220
:2042A00026F09CFB0028A8615DD004461A20B11C2060708CA080A01D27F02AFDF27F04F1A5
:2042C0003000B17F96F82830C4F81CB084F81980A062307CE273744A217563750121A07595
:2042E000928C2282F28EA285F28C6282B6F81100A4F817009AF8000085F808901CF07EFB55
:2043000055E729F06CFB044629F067FB60434FF47A71B0FBF1F065492880634809780079C4
:204320004843642148436249097800FB0100688000E04F46E87C297D6A7C01440139B942F3
:2043400018BFFF2A0CD186F83300708806F11C0186F8342019F0A8FE304627F0CBFA03E706
:20436000C845F9D1EFE7284626F006FFF4E7019880F40040BDE8FE8F92B282424BD04948F9
:204380000121007829F0B9FA45E0A879022806D1287CFF2837D0A86927F0ACFA33E029F0A4
:2043A0001EFB044629F019FB60434FF47A71B0FBF1F03F49288095F83800097888421BD2E3
:2043C00095F83620FF2A06D195F83720013085F8380085F8362095F8351095F8394082F013
:2043E000FF0300200126C7B2A7421DD206FA07F71F4214D10130F6E7EA8BA87E95F82A106F
:20440000E92322F0AFFA284626F0B6FE2548012100781CF0F3FA88F00100BDE8FE8FFBB245
:2044200001441A4385F83620AB8F95F83440C8B204FB10339EB2A64203D2FF2285F836200F
:2044400002E0FF2A08D12346184A174E1278367972436426724302E095F83A2023466A80FF
:204460002A8D0E0606D022F0200244432A852A6C224404E042F020012A6C2985297A85F89A
:204480002E10E9796A6285F82D10D9B269840549496811B188470028B8D105F1100005F042
:2044A0005BFDB3E7DC260020506C002082280020882800201C5B00202DE9F04FC3B00DF115
:2044C000450B884601469146584629F055FA00250DF1040A4FEA0876042D3AD8ECB251463A
:2044E000204624F00CFA0D2803D007460A2802D17EE1002E2FD4204659461CF07CFD013592
:204500000028E9D0002E51D40BF137010DF18600022228F081FDBDF886009DF83A10ADF836
:20452000C800C80700F083800AF1370732A90222384627F075FD9DF83A10012877D101F071
:20454000FE00FF2104228DF83A00384628F0B1FB6FE001274CE10220214641225B461EF0D7
:2045600007FC0746B3480BF10B0128F0D7FE68B90BF13701204629F0A5F938B90BF13B0160
:20458000204629F09FF9002800F032810C2029F0C7FA002800F0198129F073F8B9F1000F44
:2045A00018BF4FF0010984F80A9005E19DF84500400661D49DF84600C00700F0A48032AFF3
:2045C0000DF14501384629F0D7F90DF1860901A9484629F0D1F99DF8BC00810700F1288115
:2045E00010F001054FF03B0007F1370108BF37200422484428F010FD0220002D08BF0120DF
:204600009DF8BC10084349468DF8BC0001A829F0B3F908F060009DF805104038B0FA80F01C
:2046200001F0FE01400908448DF805006BE0880733D44FF0FF300BF1220628F00DFC384659
:20464000314627F0EDFC0AF12C05E0B3384629460A2228F0E1FC32AE28460A22314628F00D
:20466000DBFC3046394629F03CF9002800F0B98001A828F0FAFAB4E04FF0FF3028F0ECFB19
:2046800032A8394627F0CCFC0BF1220930B3384649460A2228F0C0FC27E00AF13B0632A9AD
:2046A0000222304627F0BCFC9DF83A10012840F08E8001F0FD00FF2104228DF83A003046E2
:2046C00028F0F7FA8DE02846314629F00AF9002800F0928032A928460A2280E03846494657
:2046E00029F0FFF8002800F0958008F060019DF804006039B1FA81F100F0BF00490940EAAA
:2047000081108DF804009DF84600810608D50AF10B000BF10B01022228F07EFC9DF84600A1
:20472000400613D59DF805000BF10D01012240F040008DF805000AF10D0028F06DFC0AF106
:2047400012000BF11201102228F066FC9DF84500800605D59DF8040040F020008DF80400E0
:204760000AF10E000BF10E01042228F055FCBDF88400214641225346ADF8430002201EF0E2
:20478000F7FA07462B480AF10B0128F0C7FD58B90AF13701204629F095F828B90AF13B011D
:2047A000204629F08FF818B30C2029F0B9F960B128F067FF0120A0721F482146007828F011
:2047C000C9FF204629F04AF812E0102710E041F00100314604228DF83A000AF1370028F05F
:2047E0001BFC01AB0220214641221EF0C1FA0746384643B0BDE8F08F32A8394629F071F884
:204800000128EED132A8294629F06BF801283FF42FAFE6E70AF12C0732A80A22394627F01A
:20482000FFFB00287FF433AF3846494629F059F80C27DDE7506C0020707B00202DE9F04F57
:204840008FB00C46080430D4A00448D4A00652D4E00600F10D81600600F11C81200600F1BB
:204860001E81E00500F12081200500F12281E00400F13581600400F13C81A00700F1508163
:20488000A00500F15E81200700F16881600500F16B81E0034FF0000540F1F8801EF05EFB29
:2048A000BA48C57084F48035F0E0B64800781DF051F988B10178B44A05460020582808D084
:2048C000135C08308B42F9D1104450F8041C28468847284627F00EF884F40045D6E020F093
:2048E0006FF928B10546FDF797F8284627F002F884F40055CAE0A34F2021387821F024FF9C
:20490000DFF888824FF00109D8F80810084317D029F065F8054629F060F868434FF47A7148
:20492000B0FBF1F0D8F80810401A4FEA500938BF6FF000490025002964D0B9F1000F61D00C
:2049400000200421002225F0F7FD06464FF0060A4FF0FF0B4FF6FF7802AD002E4ED03046D6
:2049600004210022374625F0E7FD06463889B0EB090038BF002038810004EED1B87BD0B380
:2049800001280AD17889400707D4386887F80DA0B721407B20F0CCF8DFE739682A468DF861
:2049A00006B0ADF80480086AC97F0EF02FFE01281BD1B87BB97A8DF838000907788A40F0B9
:2049C0008002ADF8362006D540F4C070ADF83600387B8DF83A00786910B1007BADF81800F4
:2049E000284601A9002203F0DFFD387B87F80DA018F03AFAB1E701207873AEE7DFF88C8176
:204A0000604F4D4625F00FFF00200121002225F093FD18B1387820211BF0F0FF002004212F
:204A20000022002625F088FD60B306890421002225F082FD28B1B1B20689B14238BF0E460E
:204A4000F4E7A8B2B1B2814217D9D6FA55F0202180B24200387828F050FF28F0C0FF054608
:204A600028F0BBFF68434FF47A71B0FBF1F609E00AF09AF884F0100508E0387820211BF017
:204A8000BDFF0026C8F8086084F0200528460FB0BDE8F08F0EF0B8F884F04005F6E727F0C7
:204AA000A1FB84F08005F1E725F066FB84F48075ECE71DF03FFE3748007801280CD1344810
:204AC000007848B14FF47A7100FB01F22D484FF40061007828F00EFF84F40065D6E72B4886
:204AE000017819B1002101701DF024FE84F48055CCE72A48006880B12749097801290CD1AF
:204B000080472748006800B180471E484FF480414FF47A72007828F0EDFE84F48045B5E792
:204B20002048007890B102AD284628F03AFE28F08FFB1D490B781D490A7829461CF0B2FF48
:204B400009E017F007FE84F400759FE71848418B012028F06CFF84F0020597E70B480121AF
:204B600084F00805817091E712480078022808BF17F02FF80E480121808C28F04AFF84F4FD
:204B8000806583E7617B00200CF00200902600208D2800208E2800208C280020CC23002068
:204BA000D8230020642800209128002092280020506C0020C026002070B586B00C460804E0
:204BC00003D4600432D400203DE0C64800781CF0C1FFB0B305460078A0F1D00106292AD94B
:204BE000A0F13101062965D31A2844D0FD286FD0FE2840F08780162025F0F0FE002859D0EA
:204C000006460230142128F011FE932030802A796878A978EB88012A33813071317418BF44
:204C20000222B271E978A878317566E023F0BCF924F4404007E00120884010F0750F04D038
:204C400038E024F4004006B070BD012927D1A64E6878B17881422DD006F8020FA34B4FF0E6
:204C600000700021324624F02DFB16F8010CA04981F868001EE0302025F0B0FED0B1302127
:204C8000064628F0D3FD9220A91D3070A87B032830716AD1B01D082228F0EEF867E0E889F1
:204CA000A0F50041062937D8DFE801F008C7D204A4E0BC00284626F01DFEC2E728461BF082
:204CC000FDFE0028F6D06988944B06460120D7E00A2025F083FE0028ECD006460020C6F829
:204CE0000600C6F8020091203080A8786978EA7870713171B271A988318127F0ABFB0028BC
:204D00006CD173E02846FBF799F90028D2D0A87829461CF04BFF94E748F23601884200F0BC
:204D2000BE8048F22001884200F0D18048F22101884200F0AC8048F22201884200F0B7803F
:204D400048F23401884200F0BA801328B2D100206E460290CDE900002846314626F084FF98
:204D600069886F4B4FF080707EE00888F080D5F80200C6F81200E88AA6F81B00E87BB073AB
:204D8000288A3082688AF082287D3076687D002818BF01207076687E002818BF0120B076E9
:204DA000287E7077E869306295F8200086F82400A88DF08495F82E0086F82800A88C708501
:204DC00028F03FFE0028F0623FF474AFAA8CA96A28F052F8287D27F03DFB20B1007931464E
:204DE0001CF0E4FE66E7F06A28F029FE304626F081FD5FE76E461821304628F017FD284692
:204E0000314627F0A3FA6988414B1020324624F059FA039818B128F012FE002003900598FF
:204E200090BB47E7284624F0CBFF00283FF442AF6988354B0646402022E028461BF03EFE8D
:204E400000283FF437AF6988334B0646022017E06E461221304628F0E9FC2846314618F0F6
:204E6000ADFC69882B4B0420324637E0284624F0A7FF00283FF41EAF6988244B0646202033
:204E8000324624F01FFA304628F0D9FD12E7A86969881C4B28F0B9FB4FF400501EE0A86939
:204EA0006988144B28F0B1FB4FF4800016E0A8696988124B28F0A9FB4FF400400EE0A86988
:204EC00069880D4B28F0A1FB4FF4801006E0A86969880B4B28F099FB4FF4804024F0F2F916
:204EE000E8E600BF516400201C270020F1B00200506C00203B9F0200119F0200659F0200DA
:204F0000E79E0200BD9E020035220200DD2102003DAC0100B975010055100200B31002000F
:204F2000DD43020098B0BE4E01214FF00109306028F038FB09200DF10B0401218DF80B00CD
:204F40001020224628F0E0FA10200021012223464FF0000827F0B8FD9DF90B0026F0BCFE66
:204F600003AF384628F014FCAE4D00213A468DF80C8005F11404204626F0FEFF6C6028F0C1
:204F8000FFFA05F1080A2146524623F041F82870A548A0F80880A0F8008006AF384627F0BE
:204FA000CBFE002039460FF097FBE860012039460FF092FB28614068007827F01DFC10B9E2
:204FC000287828F0B8FB994FE868394628F059FC2869394628F055FC082006F8040F9448B4
:204FE0003146B060287817F07BFC06F1100108201FF0E2FE25F07CFB8E488F4A0178082011
:2050000022F0BCFD8D4908201DF088FE28781EF03BFF8B488DF82A908DF824908DF81C90D0
:205020000DF11809494608908648CDF826004FF4006006908448CDF82B00287828F080FB49
:2050400006AF4421384628F0F1FB40F201103946ADF85600287828F055FB7C487C4A0178EC
:20506000082023F0FFFB28784FF480614FF400724FF48073CDE900215146224616F092FCE2
:205080008DF81880287806AE314628F05EFB06F1060A714E4FF00A0B20464FF0FF310FF0C9
:2050A0008DFB0028F8D028781CF054FD002875D001780746922921D0E52907F104003CD086
:2050C000CA2933D0CB290FD0E22914D0E3290FD0C5295CD13879002859D1287849468DF85B
:2050E00018B028F032FB52E0287828F015FB4EE022F004FE4BE016F049FF48E0D7F81200E5
:20510000B97BCDF81A0038798DF82710398AADF82810411E8DF82600022903D303280FD05A
:205120000F2812D1F888ADF81E000EE0287849468DF8188028F0EBFA29E028F07FFB26E03A
:20514000B91D5046082227F097FED7F81600CDF82A00F87E8DF82E00B88BADF82F00B87EC3
:205160008DF83100386A0D9097F824008DF83800F88CADF8440097F828008DF84600788DD6
:20518000ADF83C00F86A1090484602F0EBF9384614F006FD10B9384626F0ACFBA8688107A7
:2051A00023D4C1050BD53078012802D11BF066FE01E014F02FFEA86820F48070A86081058B
:2051C00005D51AF033FAA86820F40070A860410505D51EF003F8A86820F48060A8600107E5
:2051E00044BF20F00800A86056E70020CDE9060006A813F0BFFE28F0F0FB4FF47A71B1FB28
:20520000F0F04FF4FA61484315F0ACFDFF20032121F01EFE28F0C9FA0E4801210160FEE7CE
:2052200068230020042300203C7A002035AF02004C2500209BF8020080EC0200357D020078
:2052400000F8FF07FFFF01040301000199F8020060F802007C052043EA24002092B0DFF830
:20526000D092D9F8000010B1002180F84510483023F008FF27F0DAFF8046072013F0B4F82E
:205280001AF032F910B1AB4828F080F91CF012FD01AD284627F050FE0427002029468DF8B9
:2052A000047027F051FEA44C206027F07DFA0AAD284627F011FD002029468DF8287027F009
:2052C00013FD9E4E306027F079FA06AD284627F013FD002029468DF8187027F015FD316812
:2052E000974D286019B9974828F050F9286810B9954828F04BF9206810B9944828F046F91A
:205300001FF08AFAD9F800004FF0FF3438B1CDE9104410A9082226F00DFC01281BD1CDE9F7
:205320001044082028F08DFB002846D005460026052E04D828F0B4F9A8530236F8E74FF677
:20534000200029460822E880814827F095FD284628F075FB09E0D9F80010CDE910440029C7
:20536000DFD07B48082227F087FD10AA0120082128F0CAF8092800D0D8B924F047FE8007A6
:2053800012D4CDE91044CDE90E440EAB01200021082227F099FB60B90EA810A9082226F07D
:2053A000C9FB002800F0BD80694A0120082128F0B1F86749E22020F05BF814F079FD242043
:2053C00028F03FFB634E002830604DD0624F634C07F10C0528F0FDF961498968D1F84C13BB
:2053E00088473068056007F1100528F0F2F920F005FF3068456007F1140528F0EAF924F060
:20540000BBFA3068856007F1180528F0E2F91DF06BF83068C56007F11C0528F0DAF922F00F
:20542000D9FC3068056107F1200528F0D2F922F025F83068456107F1240528F0CAF91FF021
:20544000D3FF3068856107F1280528F0C2F91CF0E1FC3068C56107F12C0528F0BAF93870C1
:2054600011F014FE306805621BF07EF83D483E494FF00009CDF8409001603C480321119006
:2054800010A823F0EFFB27F05CFE404628F005FA19F084FC28F027F9012020F00FFD1BF040
:2054A000A7FF34480078022808D131480078012804D14FF40040012108F012FB264F4FF4FE
:2054C0008041387827F030FFDFF8AC8078684FF0FF310FF073F93068002550F825100968AD
:2054E00021B9691C082D0D46F7D3EFE728F0D3F8316851F825100C68C1F8009028F006FA56
:2055000058F82520002021469047044628F0C3F8316851F825100A6822430A6028F0F6F91C
:20552000D4E70B480EA9082227F0A6FC41E700BF082800200CF40200A87A0020AC7A002002
:20554000B07A0020E7F50200D4F502001EF602006C7A0020347B0020902100201180020009
:205560000C010020E423002039F30100008D1500A5280020C026002048F302007FB501386B
:20558000062800F2E0800C46DFE800F004703B54288E9B00B64800780138012800F2D38011
:2055A000002C00F0368100200321002421F050FCAC4DAD4E0420042132222870307828F06A
:2055C0009CF90820002108F08BFA30786C704FF4805104B0BDE870401DF058B802208DF80B
:2055E0000E009F48002C7DD00021A34A80F83610A04827F07BFE0020032121F029FC072058
:2056000087E09B4800780138012800F29C80964804213222007828F070F9002C00F0D68096
:205620008F4C904801210170E069002848D022F091F8F9E701208DF80E0054B18848002176
:205640008D4A80F836108B4827F050FE072025F033FF8448002132220170834828F0BDF8C5
:205660007F4890F8371001F0FD016AE00020002527F09AFC7D480121017004208DF80E005A
:2056800024B17748C586072025F016FF75480421322205707448007828F02FF9704890F87B
:2056A000371001F0FE014CE06D4C03208DF80E0094F8360008B90120A0712078002855D07E
:2056C0007FBD00258DF80E5094B312F095FF65480D21C8220570624880F83610624828F045
:2056E0007CF829E0082180F8361061490978012911D890F83A0070B900200DF10B018DF86E
:205700000B0052201FF0B4FE27F048F923F04AFA002025F0D1FE534800213222017052487D
:2057200028F05BF84E4890F8371001F0FB0108E04B48022180F83610494890F8371001F0FF
:20574000EF0180F837104648016A0029B8D090F836000DF10D01002203238DF80D004248C2
:20576000007800910A2120F066FE7FBD206927F013FC0028A4D13C4D4FF48041287820F0BC
:20578000E3FF00289CD1002604F11000C4E9056625F07AFA28784FF480411CF077FFA07987
:2057A000012806D194F836000B2804BF002084F836002C48A6710178062944D100213222A2
:2057C00001702878042128F098F841E0244C022000218DF80C1084F836002248017094F85D
:2057E000370000F0FD0084F8370001208DF80E0003A952201FF03CFE27F0D0F823F0D2F9FA
:20580000002025F059FEE06900289CD021F0A2FFF9E7134C0720144D4FF4805184F83600E0
:2058200001208DF80E0028781CF030FF0020002624F0F6FD2878022141F2883284F83760C9
:2058400028F05BF87FE7C178062904BF0021C17094F8370000F0F70084F8370073E700BF84
:20586000E4210020BC7A0020687B002080280020C0260020506C00204E2800202DE9F04F15
:2058800089B08A4608040DD45FEACA7040F01E815FEA8A7000F12C815FEA0A7000F1348176
:2058A000002045E1A44F38781CF054F9DFF89092A74DA24C06464FF0000B48F21508002EB0
:2058C00000F001813078312852D0322838D0D32840F0B480F089404574D0382840F0AE8072
:2058E000CDF820B0CDE906BB304606A923F0DAFA9DF81C10052969D8307B002840F09E803F
:205900009DF81D00002800F09980052800F29680069826F098FE002840F09080707C8949FF
:20592000AC467870708808809DF81D00214601388DF81D0006A890E82C002CC165467DE0D2
:205940006079FF2827D0002019F0A6FE0246B9F8701078783346CDF800B014F0F3FD60795F
:2059600000286BD038780821322227F0C6FF65E0B878032862D899F82E10284626F063FE2D
:2059800000285BD1FF207149607170880880B0886D49088052E099F81810706820FA01F243
:2059A000D2071ABF3144097A002100221B2A43D020FA02F3DB0703D0B3181B7A99421ED8AD
:2059C0000132F3E7304624F09FFC37E0FF293DD0FE2956D199F872109DF81E00884202D891
:2059E00060BBFF292AD11FF0ABFB069900201B2859D021FA00F2D20756D10130F7E7B9F8BC
:205A00006E005049334608804F4802884F48018810200090002014F095FD0120F870B8780E
:205A200040B93C2002214EF66022B880387827F064FFB8780130B87084F805B0304625F081
:205A400059FF38781CF086F8064638E799F872109DF81E00884203D80028EFD1FF29EDD110
:205A60001FF06EFB069838B1D9F82810814203D0C9F8280025F030FDBDF8200026F04EFC28
:205A8000DCE7307B0028D9D170882E49802200230880707CCDE900BBCDE902BBCDE904BBC5
:205AA00013F0BCFACAE71B2099F81820C1B28A42C4D02849087099F80700642100FB01F2B1
:205AC0003878012151E72AF4004031E021491C4C08782076E1201FF0CBFC25F0FDFC002060
:205AE000A4F87000012019F0D7FD48F201001DE011488188B1B101394EF660228180007827
:205B0000022127F0FAFE0FE00C4C607938B12179206826F098FD10B960790138607148F297
:205B20000B0003E00021817048F203002AEA000009B0BDE8F08F00BF242500200C7A002069
:205B4000506C0020527A00207E7900204677002000F8FF07647B00202DE9FE4F074608686C
:205B60000024B0B1D7E9018A0E4627F05FFB8146D8F8E800082888BF0124B068204202D128
:205B80007068204208D003203074484627F085FE00242046BDE8FE8FD8F8C01069B198F8FE
:205BA000F8100029EFD006213174D8F8C410C8F8C4604E6198F8FC100DE000210522C8E970
:205BC0003066C8E93411C8E9361198F8FC10002908BF0122327400220129726109D10220D1
:205BE0004FF4E02188F8FC0098F8FB0022F092FF706889490138884205D8042023F062F89C
:205C0000062023F05FF8022023F05CF898F8F80040B9DAF83C003168814203D298F8FC001F
:205C200000286CD0D8E9361009B118B900E028B327F0D7FDDAF80000416941F00101416177
:205C4000484627F02AFE98F8F80008B10124A0E708F16C05D8F8EC10284627F035FD002875
:205C6000F4D0D8F8C00003210174384615F054F928460021002427F027FD8AE79AF8040072
:205C800027F0BBFE654CDAF810100222206991FAA1F1B1FA81F14368D8F8CC004068006853
:205CA00098472069DAF8141002224368D8F8CC0091FAA1F1B1FA81F14068006898479AF860
:205CC000040025F099FA9AF8040027F098FE27F088FD0020C8F8E000D8F8C0000068B0F5DC
:205CE000806F01D927F07DFD98F8FE000028A1D1DAF80000416841F0020141609AE798F8C1
:205D0000F90020B1D8F8EC0001307FF48BAF484627F0C3FDB2683AB1D8F8E80002210928A9
:205D200038BF0121009103E008F1F40200200090746834B1D8F8E8000227092838BF012745
:205D400002E008F1F6040027DAF80000334D416841F002014160D6F800B0D946BBF1000F1F
:205D600040D0D8F8E800019209284FF0010011D22A68B9F1000F1FD0C0071DD02178DAF81B
:205D800000009268904700281EBF3C44A9F101090120EDE72A68B9F1000F16D0C00714D038
:205DA0002188DAF800009268904700281EBF3C44A9F101090120EDE7DAF80000D26802A9C2
:205DC0009047DDE90120107007E0DAF80000D26802A99047DDE9012010800098ABF1010B59
:205DE0000244BBE7D8F8F000DAF80010CA680240102802D1002AF9D101E0002AF6D07068FD
:205E000025F02CF8D8F8C0100020C8F8C400C8F8C00008741AE700BFFEFFFF0FC401001069
:205E20002DE9F04F9BB00446008889460B2100F00700022808BF1421002808BF0F21607EDB
:205E400001EB0008404627F06BFE002800F09380214602220746022627F0DEF82088BD1CAF
:205E60000DF1040B00F00700022811D018BB0020261D04228DF804000BF10400314627F0A0
:205E8000CBF828463146042227F0C6F8BD1D12E08DF8046004F108060BF104000822314606
:205EA00027F0BAF828463146082227F0B5F8207C07F10B05B87204F114012846042227F0C3
:205EC000ABF8207E2871627E6A71063552B1E169002950D0284627F09FF8E069667E27F0FC
:205EE000BDFC354404F12001284627F0FDFC94F822005FFA88F23946A8707548083020F0BF
:205F00007DF8002800F0DF8080F800900DF11F09002480464FF0FF300BF10405002609F1EA
:205F2000020A09F10607ADF86800CDE91800ADF81840CDE90444042E1FD8F0B2494622F00C
:205F4000DEFC04460D2814D00A2C19D09DF804009DF81F10484040070BD1284639460422CA
:205F600026F05EF860B928465146082226F058F830B90136DFE71020A6E00D2C00F09B8027
:205F8000544DF2208DF81900A88CADF81A009DF81F00410636D5022009F122010A228DF8C7
:205FA000180018A826F03CF888B904AC09F12A0127F01FFC464827F008FC40B1E98A818168
:205FC000014694E84C004CC198F80010817309F12C0118A80A2226F023F888B904AC09F1E2
:205FE000340127F006FC3A4827F0EFFB40B1E98A8181014694E82C002CC198F800108173FA
:206000009DF81F0040B2B0F1FF3F23DC01208DF8180001A81CF05CFDADF810002C4827F0F0
:20602000D4FBB8B104469DF82000800604D401A81CF04EFDA08105E004F10C0009F10B01BE
:2060400027F052FC04A8214690E82C002CC198F80000A0739DF82000C0072CD001208DF876
:2060600018009DF85500C00710D004AC09F1370127F0BFFB164827F0A8FB38B105460C303C
:2060800009F1390127F030FC26F0B9FD9DF85500800710D504AC09F13B0127F0AAFB0C4871
:2060A00027F093FB38B105460C3009F13D0127F01BFC26F0A4FD08483221006827F0B1FBE0
:2060C000064827F0DCFC01201BB0BDE8F08F00BFC0250020506C0020E47A0020C8710020FC
:2060E0002DE9F04F8BB00746807E25F045FA90B1FE69307878B18000013027F0A2FC40B1A1
:20610000044626F039FF1EF0F3FB48B1204627F096FC102600E0022630460BB0BDE8F08F50
:2061200000204FF000094FF0000B05940490CDE906703078834580F0808006EB090AB0467A
:20614000BD89BC7EBAF8026020462946324620F045FC074620462946324608AB20F08AF92D
:20616000FF2F11D09AF8011080B14646E9B99AF804009DF82610162588421CD19DF82710EF
:2061800049071BD48C2017E09AF8011087204646079C059BE2B2013403EB8202079450706E
:2061A000BAF802009170A2F80300069F09F10E090BF1010BBDE78D200021E9E7734BBAF81D
:2061C00005204FF6FF74BAF807101B68A24208BF00291CD017FB05331981DA8024F074FA16
:2061E00040B36A490022086817FB0500C0F80E20086817FB0500DAF80B5000F10E049AF821
:20620000040026F093FC02462046294610E017FB053000210422C0F80E10D0F80A10C0F8CA
:2062200006105A48006817FB050101F10E00123126F022FE01200490B7E70498012840F065
:206240008580514C514E16252078326800FB05F1562027F059F930B92078326800FB05F1B4
:20626000562027F057F94A48802100781CF00EFA484890F800904FEA890027F0E2FB0028FC
:2062800064D0454F80464A4608F10101781C3AB150F8013C013A143041F8013C0431F6E7DA
:2062A0003C4890F800B0BBF1000F36D04FF0000A01200025E9B259452FD200060CD1002095
:2062C00029E0D0E90041396127F0B9FB387B01383873204627F0B3FB38690028F1D1DFF832
:2062E000B4C09CF800000138C1B28CF80000890051FA80F107EB810257F821105368D2E9B6
:206300000346C7E900131189C7E90346C2F810A082F80CA039810135CCE706F005FD00248F
:20632000A1450FD008EB84004188407821F0DCFFFF2805D018F8241000EB800007F82010DA
:206340000134EDE7404627F07AFB069F059C07982070000604BF0120208000260123B97AA6
:20636000BA89B87ECDE900332346CDE9021607F10E0115F0E9FB204627F061FB25F04CF961
:2063800021F0B0F9C8E600BF6A7B0020C07A0020687B00206C7B0020306D00202DE9F04F5B
:2063A00087B0851C8346284627F068FA01AC06461821204627F03AFA9BF801A004F10B003E
:2063C0002946009527F0DEFA6FF001009BF80A1002240122ADF8180000208DF81A408DF833
:2063E0000C0001F00800C1F3C007890782EAD00507D40028B946A84608BF01240027002524
:2064000007E004244FF000094FF00008002808BF03248548007850EA0A000BD0834890F811
:206420002600082809D126F07FFC00285AD0BAF1010F57D14FF0C30901E04FF0C20900254B
:20644000BAF1000F10D07F48007890B9BAF1010F0FD1002E63D00020214601228DF81A00D5
:2064600001A816F001FB0AE001A81DF06BFB86B91CE001A82146524616F0F6FAB6B1717941
:20648000BAF1020F41F04002727104BF41F0600171719BF80A10490603D5717941F0800143
:2064A0007171B17900240131B17100E00124B0FA80F149090D423AD107D1002D18BF8146E9
:2064C00041F20100494619F0CAFC14B900981BF0E1F9BDF818004FF6FE71884218BF27F0A7
:2064E000BAFA24E0DEB33279A24218BFBAF1020F20D1D01EC0B2012802D857EA050006D1C0
:20650000501EC0B2012822D859EA08011FD0308823F0EAFF20BB3088ADF8180022E0022015
:20652000214601228DF81A0001A816F09DFA07B0BDE8F08F4FF00009009953468DF81A9068
:206540003088ADF8180027F066FA012578E7012802D8308827F07FFA00981BF09BF9002622
:20656000BDF818004FF6FE7188421ED123F08CFD10B1BDF8180011E0BAF1000F04D02C4DBF
:20658000288823F0B1FF30B19BF80A0000F0020022F0C8FB00E02888ADF818004FF6FE7142
:2065A000884202D14FF0C70949E79BF80A200099534627F030FA10B14FF001093FE71D483A
:2065C000016811B1BDF818008847BDF818000099224607F06BFD0646174818490A680078D1
:2065E0004FF4803127F089F901211548C17096B1AAF10100C0B2012807D81020BAF1020F15
:2066000008BF08207179084370714FF0000901258DF81A9014E74FF6FE7000254FF00109BC
:206620000026ADF818000BE780250020506C00203C280020E0230020617B002054F80200F3
:2066400090260020C02600202DE9F04F8DB0044600209A4616460F46CDE90B00CDE9090051
:206660008A488568804617F013FA1C2803D017F00FFA1B281BD1308840F60201884218BF99
:20668000B0F5C15F03D1F07B022810D93EE043F6070188420BD196F82400032807D330698E
:2066A0007B4940F0806020F0604088422ED100206FB366B3387825FA00F0C00726D0304640
:2066C000002127F0B8F97348C4E90176006880B109A800900CA90BAA0AAB30460BF01EFB6F
:2066E0000B980B214FF6FF72502324F0E5FDFF280CD026F09BFD684F06467878012802D805
:2067000040B1012070E0304627F0C7F800200DB0BDE8F08F0BF076FA60480DF10409016843
:2067200041F0020101605E48C8F80000484626F0FBFBDFF870B15D494A469BF801009BF86F
:20674000005003905848283021F087FA584859494A4621F082FA484626F016FBDFF8588108
:20676000564A19214B46029540461FF0DFFE544A08F11C001A214B461FF0D8FE514852490D
:2067800027F047F85148524927F043F85148006810F4402F06D0504A07F1280004210023D1
:2067A00024F088F99BF8020010B10D2011F01CFE08F1400025F03CFF08F1380025F038FFA0
:2067C0004649002007223876B8843862386181F860200521C7E902104149F9613870042033
:2067E000002124F019FE78782F4941F8204001307870304627F051F8BAF1000F02D0DAF8FF
:20680000000008E00DF1040A36492022504627F03FF94FF0FF30DAF80420BAF81010DAE9E5
:206820000635002AB2FA82F608BF40F6C4122060012076096183256360762B4826764FF448
:20684000FA766261C4E90362C4E90700C4E90903DAF80C0000B12062DAF8140000B160621C
:20686000DAF8080000B1E06104F13800C82126F0DDFF04F15000002124F00EFE1B4904F165
:20688000B80026F0C6FF204641E700BFCC2108400F00000504270020401F0020002009409C
:2068A000110000E058F7020078200020C1BB0200187300200D72010038210020E5010200D4
:2068C00065E3010084710020D9AA0200407100206DBB0200B44F00504D300200C86C0020B4
:2068E000012B0100ECF30200CB6501002BD902002DE9F04FA7B00DF120088146002138223F
:20690000404626F0D6F999F80720089B99F8061099F8050043EA024242EA012108430890D2
:2069200000F00700022811D008BB08F1040009F10801042216F058FC08F10800FF210822C7
